{"abi":[{"inputs":[],"stateMutability":"nonpayable","type":"constructor","name":"constructor"},{"anonymous":false,"inputs":[{"indexed":true,"internalType":"address","name":"owner","type":"address"},{"indexed":true,"internalType":"address","name":"approved","type":"address"},{"indexed":true,"internalType":"uint256","name":"tokenId","type":"uint256"}],"name":"Approval","type":"event"},{"anonymous":false,"inputs":[{"indexed":true,"internalType":"address","name":"owner","type":"address"},{"indexed":true,"internalType":"address","name":"operator","type":"address"},{"indexed":false,"internalType":"bool","name":"approved","type":"bool"}],"name":"ApprovalForAll","type":"event"},{"anonymous":false,"inputs":[{"indexed":false,"internalType":"address","name":"sender","type":"address"},{"indexed":false,"internalType":"uint256","name":"tokenId","type":"uint256"}],"name":"NewLegendNFTMinted","type":"event"},{"anonymous":false,"inputs":[{"indexed":true,"internalType":"address","name":"from","type":"address"},{"indexed":true,"internalType":"address","name":"to","type":"address"},{"indexed":true,"internalType":"uint256","name":"tokenId","type":"uint256"}],"name":"Transfer","type":"event"},{"inputs":[{"internalType":"address","name":"to","type":"address"},{"internalType":"uint256","name":"tokenId","type":"uint256"}],"name":"approve","outputs":[],"stateMutability":"nonpayable","type":"function"},{"inputs":[{"internalType":"address","name":"owner","type":"address"}],"name":"balanceOf","outputs":[{"internalType":"uint256","name":"","type":"uint256"}],"stateMutability":"view","type":"function"},{"inputs":[{"internalType":"uint256","name":"tokenId","type":"uint256"}],"name":"getApproved","outputs":[{"internalType":"address","name":"","type":"address"}],"stateMutability":"view","type":"function"},{"inputs":[],"name":"getTotalNFTsMintedSoFar","outputs":[{"internalType":"uint256","name":"","type":"uint256"}],"stateMutability":"view","type":"function"},{"inputs":[{"internalType":"address","name":"owner","type":"address"},{"internalType":"address","name":"operator","type":"address"}],"name":"isApprovedForAll","outputs":[{"internalType":"bool","name":"","type":"bool"}],"stateMutability":"view","type":"function"},{"inputs":[],"name":"makeLegendNFT","outputs":[],"stateMutability":"nonpayable","type":"function"},{"inputs":[],"name":"name","outputs":[{"internalType":"string","name":"","type":"string"}],"stateMutability":"view","type":"function"},{"inputs":[{"internalType":"uint256","name":"tokenId","type":"uint256"}],"name":"ownerOf","outputs":[{"internalType":"address","name":"","type":"address"}],"stateMutability":"view","type":"function"},{"inputs":[{"internalType":"address","name":"from","type":"address"},{"internalType":"address","name":"to","type":"address"},{"internalType":"uint256","name":"tokenId","type":"uint256"}],"name":"safeTransferFrom","outputs":[],"stateMutability":"nonpayable","type":"function"},{"inputs":[{"internalType":"address","name":"from","type":"address"},{"internalType":"address","name":"to","type":"address"},{"internalType":"uint256","name":"tokenId","type":"uint256"},{"internalType":"bytes","name":"_data","type":"bytes"}],"name":"safeTransferFrom","outputs":[],"stateMutability":"nonpayable","type":"function"},{"inputs":[{"internalType":"address","name":"operator","type":"address"},{"internalType":"bool","name":"approved","type":"bool"}],"name":"setApprovalForAll","outputs":[],"stateMutability":"nonpayable","type":"function"},{"inputs":[{"internalType":"bytes4","name":"interfaceId","type":"bytes4"}],"name":"supportsInterface","outputs":[{"internalType":"bool","name":"","type":"bool"}],"stateMutability":"view","type":"function"},{"inputs":[],"name":"symbol","outputs":[{"internalType":"string","name":"","type":"string"}],"stateMutability":"view","type":"function"},{"inputs":[{"internalType":"uint256","name":"tokenId","type":"uint256"}],"name":"tokenURI","outputs":[{"internalType":"string","name":"","type":"string"}],"stateMutability":"view","type":"function"},{"inputs":[],"name":"totalSupply","outputs":[{"internalType":"uint256","name":"","type":"uint256"}],"stateMutability":"view","type":"function"},{"inputs":[{"internalType":"address","name":"from","type":"address"},{"internalType":"address","name":"to","type":"address"},{"internalType":"uint256","name":"tokenId","type":"uint256"}],"name":"transferFrom","outputs":[],"stateMutability":"nonpayable","type":"function"}],"bytecode":"61018060405260de608081815290620029eb60a03960099062000023908262000945565b5060405180608001604052806057815260200162002ac960579139600a906200004d908262000945565b5060405180610140016040528060405180604001604052806007815260200166115b1959d85b9d60ca1b81525081526020016040518060400160405280600981526020016845787175697369746560b81b815250815260200160405180604001604052806008815260200167476c6f72696f757360c01b8152508152602001604051806040016040528060098152602001684a756e6f657371756560b81b81525081526020016040518060400160405280600b81526020016a135859db9a599a58d95b9d60aa1b81525081526020016040518060400160405280600b81526020016a14995cdc1b195b99195b9d60aa1b81525081526020016040518060400160405280600881526020016714dc1b195b991a5960c21b81525081526020016040518060400160405280600a8152602001695374617475657371756560b01b8152508152602001604051806040016040528060078152602001665375626c696d6560c81b81525081526020016040518060400160405280600681526020016529bab832b93160d11b815250815250600b90600a620001ec92919062000733565b5060405180610160016040528060405180604001604052806006815260200165283cba3437b760d11b81525081526020016040518060400160405280600a81526020016912985d985cd8dc9a5c1d60b21b8152508152602001604051806040016040528060048152602001634a61766160e01b815250815260200160405180604001604052806002815260200161432360f01b8152508152602001604051806040016040528060018152602001604360f81b815250815260200160405180604001604052806003815260200162432b2b60e81b815250815260200160405180604001604052806002815260200161476f60f01b815250815260200160405180604001604052806004815260200163149d5cdd60e21b8152508152602001604051806040016040528060018152602001602960f91b81525081526020016040518060400160405280600581526020016414ddda599d60da1b81525081526020016040518060400160405280600381526020016205048560ec1b815250815250600c90600b6200037c92919062000790565b5060408051610180810182526004610140820181815263436f646560e01b610160840152825282518084018452600381526247656d60e81b6020828101919091528084019190915283518085018552828152634172747360e01b81830152838501528351808501855291825263576f726b60e01b82820152606083019190915282518084018452600c81526b4d61737465727374726f6b6560a01b81830152608083015282518084018452600781526650726f6772616d60c81b8183015260a0830152825180840184526002815261554960f01b8183015260c083015282518084018452600b81526a4d6173746572706965636560a81b8183015260e083015282518084018452600981526853686f77706965636560b81b818301526101008301528251808401909352600883526714dd185b99185c9960c21b90830152610120810191909152620004d390600d90600a62000733565b50604080516102008101825260076101c08201818152662342443145353160c81b6101e0840152825282518084018452818152662330304142453160c81b60208281019190915280840191909152835180850185528281526608cc4d8c518d9160ca1b818301528385015283518085018552828152662337444132413960c81b81830152606084015283518085018552828152661198181a1a9c2160c91b81830152608084015283518085018552828152660466288646464760cb1b8183015260a0840152835180850185528281526611981a989b191960c91b8183015260c084015283518085018552828152662334333839343560c81b8183015260e084015283518085018552828152660466a866c8a6a760cb1b8183015261010084015283518085018552828152660466270627062760cb1b8183015261012084015283518085018552828152662332434343433360c81b81830152610140840152835180850185528281526608d19050d10cd160ca1b81830152610160840152835180850185528281526608cd4d8c8d90cd60ca1b8183015261018084015283518085019094529083526611a29b181a9b9b60c91b908301526101a0810191909152620006a190600e9081620007db565b50348015620006af57600080fd5b506040518060400160405280601981526020017f436f6465666f72657374732053616d706c65204c6567656e64000000000000008152506040518060400160405280600481526020016310d194d360e21b815250816000908162000714919062000945565b50600162000723828262000945565b5050620f42406008555062000a11565b8280548282559060005260206000209081019282156200077e579160200282015b828111156200077e57825182906200076d908262000945565b509160200191906001019062000754565b506200078c92915062000826565b5090565b8280548282559060005260206000209081019282156200077e579160200282015b828111156200077e5782518290620007ca908262000945565b5091602001919060010190620007b1565b8280548282559060005260206000209081019282156200077e579160200282015b828111156200077e578251829062000815908262000945565b5091602001919060010190620007fc565b808211156200078c5760006200083d828262000847565b5060010162000826565b5080546200085590620008b6565b6000825580601f1062000866575050565b601f01602090049060005260206000209081019062000886919062000889565b50565b5b808211156200078c57600081556001016200088a565b634e487b7160e01b600052604160045260246000fd5b600181811c90821680620008cb57607f821691505b602082108103620008ec57634e487b7160e01b600052602260045260246000fd5b50919050565b601f8211156200094057600081815260208120601f850160051c810160208610156200091b5750805b601f850160051c820191505b818110156200093c5782815560010162000927565b5050505b505050565b81516001600160401b03811115620009615762000961620008a0565b6200097981620009728454620008b6565b84620008f2565b602080601f831160018114620009b15760008415620009985750858301515b600019600386901b1c1916600185901b1785556200093c565b600085815260208120601f198616915b82811015620009e257888601518255948401946001909101908401620009c1565b508582101562000a015787850151600019600388901b60f8161c191681555b5050505050600190811b01905550565b611fca8062000a216000396000f3fe608060405234801561001057600080fd5b50600436106101005760003560e01c80636352211e11610097578063a22cb46511610066578063a22cb465146101fd578063b88d4fde14610210578063c87b56dd14610223578063e985e9c51461023657600080fd5b80636352211e146101c75780636cb6b69c146101da57806370a08231146101e257806395d89b41146101f557600080fd5b8063095ea7b3116100d3578063095ea7b31461018357806318160ddd1461019857806323b872dd146101a157806342842e0e146101b457600080fd5b806301ffc9a714610105578063060475901461012d57806306fdde0314610143578063081812fc14610158575b600080fd5b61011861011336600461164c565b610272565b60405190151581526020015b60405180910390f35b6101356102c4565b604051908152602001610124565b61014b6102d4565b60405161012491906116c1565b61016b6101663660046116d4565b610366565b6040516001600160a01b039091168152602001610124565b610196610191366004611709565b6103f3565b005b61013560085481565b6101966101af366004611733565b610508565b6101966101c2366004611733565b610539565b61016b6101d53660046116d4565b610554565b6101966105cb565b6101356101f036600461176f565b61072e565b61014b6107b5565b61019661020b36600461178a565b6107c4565b61019661021e3660046117dc565b6107d3565b61014b6102313660046116d4565b61080b565b6101186102443660046118b8565b6001600160a01b03918216600090815260056020908152604080832093909416825291909152205460ff1690565b60006001600160e01b031982166380ac58cd60e01b14806102a357506001600160e01b03198216635b5e139f60e01b145b806102be57506301ffc9a760e01b6001600160e01b03198316145b92915050565b60006102cf60075490565b905090565b6060600080546102e3906118eb565b80601f016020809104026020016040519081016040528092919081815260200182805461030f906118eb565b801561035c5780601f106103315761010080835404028352916020019161035c565b820191906000526020600020905b81548152906001019060200180831161033f57829003601f168201915b5050505050905090565b600061037182610981565b6103d75760405162461bcd60e51b815260206004820152602c60248201527f4552433732313a20617070726f76656420717565727920666f72206e6f6e657860448201526b34b9ba32b73a103a37b5b2b760a11b60648201526084015b60405180910390fd5b506000908152600460205260409020546001600160a01b031690565b60006103fe82610554565b9050806001600160a01b0316836001600160a01b03160361046b5760405162461bcd60e51b815260206004820152602160248201527f4552433732313a20617070726f76616c20746f2063757272656e74206f776e656044820152603960f91b60648201526084016103ce565b336001600160a01b038216148061048757506104878133610244565b6104f95760405162461bcd60e51b815260206004820152603860248201527f4552433732313a20617070726f76652063616c6c6572206973206e6f74206f7760448201527f6e6572206e6f7220617070726f76656420666f7220616c6c000000000000000060648201526084016103ce565b610503838361099e565b505050565b6105123382610a0c565b61052e5760405162461bcd60e51b81526004016103ce90611925565b610503838383610af2565b610503838383604051806020016040528060008152506107d3565b6000818152600260205260408120546001600160a01b0316806102be5760405162461bcd60e51b815260206004820152602960248201527f4552433732313a206f776e657220717565727920666f72206e6f6e657869737460448201526832b73a103a37b5b2b760b91b60648201526084016103ce565b60006105d660075490565b905060085481106106295760405162461bcd60e51b815260206004820152601e60248201527f546f74616c20737570706c7920686173206265656e207265616368656421000060448201526064016103ce565b600061063482610c92565b9050600061064183610d86565b9050600061064e84610dcb565b9050600061065b85610e10565b9050600084848460405160200161067493929190611976565b60405160208183030381529060405290506000600983600a846040516020016106a09493929190611a43565b604051602081830303815290604052905060006106bd8383610e55565b90506106c93389610eb9565b6106d38882610ed3565b6106e1600780546001019055565b7f7306d6c01e7a3353e6a3bbe61f959b7e8de3af644e710b3b82de5ecc2090229e33604080516001600160a01b039092168252602082018b90520160405180910390a15050505050505050565b60006001600160a01b0382166107995760405162461bcd60e51b815260206004820152602a60248201527f4552433732313a2062616c616e636520717565727920666f7220746865207a65604482015269726f206164647265737360b01b60648201526084016103ce565b506001600160a01b031660009081526003602052604090205490565b6060600180546102e3906118eb565b6107cf338383610f57565b5050565b6107dd3383610a0c565b6107f95760405162461bcd60e51b81526004016103ce90611925565b61080584848484611025565b50505050565b606061081682610981565b61087c5760405162461bcd60e51b815260206004820152603160248201527f45524337323155524953746f726167653a2055524920717565727920666f72206044820152703737b732bc34b9ba32b73a103a37b5b2b760791b60648201526084016103ce565b60008281526006602052604081208054610895906118eb565b80601f01602080910402602001604051908101604052809291908181526020018280546108c1906118eb565b801561090e5780601f106108e35761010080835404028352916020019161090e565b820191906000526020600020905b8154815290600101906020018083116108f157829003601f168201915b50505050509050600061092c60408051602081019091526000815290565b9050805160000361093e575092915050565b815115610970578082604051602001610958929190611aa1565b60405160208183030381529060405292505050919050565b61097984611058565b949350505050565b6000908152600260205260409020546001600160a01b0316151590565b600081815260046020526040902080546001600160a01b0319166001600160a01b03841690811790915581906109d382610554565b6001600160a01b03167f8c5be1e5ebec7d5bd14f71427d1e84f3dd0314c0f7b2291e5b200ac8c7c3b92560405160405180910390a45050565b6000610a1782610981565b610a785760405162461bcd60e51b815260206004820152602c60248201527f4552433732313a206f70657261746f7220717565727920666f72206e6f6e657860448201526b34b9ba32b73a103a37b5b2b760a11b60648201526084016103ce565b6000610a8383610554565b9050806001600160a01b0316846001600160a01b03161480610abe5750836001600160a01b0316610ab384610366565b6001600160a01b0316145b8061097957506001600160a01b0380821660009081526005602090815260408083209388168352929052205460ff16610979565b826001600160a01b0316610b0582610554565b6001600160a01b031614610b6d5760405162461bcd60e51b815260206004820152602960248201527f4552433732313a207472616e73666572206f6620746f6b656e2074686174206960448201526839903737ba1037bbb760b91b60648201526084016103ce565b6001600160a01b038216610bcf5760405162461bcd60e51b8152602060048201526024808201527f4552433732313a207472616e7366657220746f20746865207a65726f206164646044820152637265737360e01b60648201526084016103ce565b610bda60008261099e565b6001600160a01b0383166000908152600360205260408120805460019290610c03908490611ae6565b90915550506001600160a01b0382166000908152600360205260408120805460019290610c31908490611afd565b909155505060008181526002602052604080822080546001600160a01b0319166001600160a01b0386811691821790925591518493918716917fddf252ad1be2c89b69c2b068fc378daa952ba7f163c4a11628f55a4df523b3ef91a4505050565b60606000610cc6610ca284611130565b604051602001610cb29190611b15565b604051602081830303815290604052611231565b600b54909150610cd69082611b5d565b9050600b8181548110610ceb57610ceb611b71565b906000526020600020018054610d00906118eb565b80601f0160208091040260200160405190810160405280929190818152602001828054610d2c906118eb565b8015610d795780601f10610d4e57610100808354040283529160200191610d79565b820191906000526020600020905b815481529060010190602001808311610d5c57829003601f168201915b5050505050915050919050565b60606000610da6610d9684611130565b604051602001610cb29190611b87565b600c54909150610db69082611b5d565b9050600c8181548110610ceb57610ceb611b71565b60606000610deb610ddb84611130565b604051602001610cb29190611bba565b600d54909150610dfb9082611b5d565b9050600d8181548110610ceb57610ceb611b71565b60606000610e30610e2084611130565b604051602001610cb29190611bdf565b600e54909150610e409082611b5d565b9050600e8181548110610ceb57610ceb611b71565b60606000610e8b84610e6685611262565b604051602001610e77929190611c0c565b604051602081830303815290604052611262565b9050600081604051602001610ea09190611ced565b60408051808303601f1901815291905295945050505050565b6107cf8282604051806020016040528060008152506113cc565b610edc82610981565b610f3f5760405162461bcd60e51b815260206004820152602e60248201527f45524337323155524953746f726167653a2055524920736574206f66206e6f6e60448201526d32bc34b9ba32b73a103a37b5b2b760911b60648201526084016103ce565b60008281526006602052604090206105038282611d80565b816001600160a01b0316836001600160a01b031603610fb85760405162461bcd60e51b815260206004820152601960248201527f4552433732313a20617070726f766520746f2063616c6c65720000000000000060448201526064016103ce565b6001600160a01b03838116600081815260056020908152604080832094871680845294825291829020805460ff191686151590811790915591519182527f17307eab39ab6107e8899845ad3d59bd9653f200f220920489ca2b5937696c31910160405180910390a3505050565b611030848484610af2565b61103c848484846113ff565b6108055760405162461bcd60e51b81526004016103ce90611e40565b606061106382610981565b6110c75760405162461bcd60e51b815260206004820152602f60248201527f4552433732314d657461646174613a2055524920717565727920666f72206e6f60448201526e3732bc34b9ba32b73a103a37b5b2b760891b60648201526084016103ce565b60006110de60408051602081019091526000815290565b905060008151116110fe5760405180602001604052806000815250611129565b8061110884611130565b604051602001611119929190611aa1565b6040516020818303038152906040525b9392505050565b6060816000036111575750506040805180820190915260018152600360fc1b602082015290565b8160005b8115611181578061116b81611e92565b915061117a9050600a83611eab565b915061115b565b60008167ffffffffffffffff81111561119c5761119c6117c6565b6040519080825280601f01601f1916602001820160405280156111c6576020820181803683370190505b5090505b8415610979576111db600183611ae6565b91506111e8600a86611b5d565b6111f3906030611afd565b60f81b81838151811061120857611208611b71565b60200101906001600160f81b031916908160001a90535061122a600a86611eab565b94506111ca565b6000816040516020016112449190611ebf565b60408051601f19818403018152919052805160209091012092915050565b80516060906000819003611286575050604080516020810190915260008152919050565b60006003611295836002611afd565b61129f9190611eab565b6112aa906004611edb565b905060006112b9826020611afd565b67ffffffffffffffff8111156112d1576112d16117c6565b6040519080825280601f01601f1916602001820160405280156112fb576020820181803683370190505b5090506000604051806060016040528060408152602001611f55604091399050600181016020830160005b86811015611387576003818a01810151603f601282901c8116860151600c83901c8216870151600684901c831688015192909316870151600891821b60ff94851601821b92841692909201901b91160160e01b835260049092019101611326565b5060038606600181146113a157600281146113b2576113be565b613d3d60f01b6001198301526113be565b603d60f81b6000198301525b505050918152949350505050565b6113d68383611500565b6113e360008484846113ff565b6105035760405162461bcd60e51b81526004016103ce90611e40565b60006001600160a01b0384163b156114f557604051630a85bd0160e11b81526001600160a01b0385169063150b7a0290611443903390899088908890600401611efa565b6020604051808303816000875af192505050801561147e575060408051601f3d908101601f1916820190925261147b91810190611f37565b60015b6114db573d8080156114ac576040519150601f19603f3d011682016040523d82523d6000602084013e6114b1565b606091505b5080516000036114d35760405162461bcd60e51b81526004016103ce90611e40565b805181602001fd5b6001600160e01b031916630a85bd0160e11b149050610979565b506001949350505050565b6001600160a01b0382166115565760405162461bcd60e51b815260206004820181905260248201527f4552433732313a206d696e7420746f20746865207a65726f206164647265737360448201526064016103ce565b61155f81610981565b156115ac5760405162461bcd60e51b815260206004820152601c60248201527f4552433732313a20746f6b656e20616c7265616479206d696e7465640000000060448201526064016103ce565b6001600160a01b03821660009081526003602052604081208054600192906115d5908490611afd565b909155505060008181526002602052604080822080546001600160a01b0319166001600160a01b03861690811790915590518392907fddf252ad1be2c89b69c2b068fc378daa952ba7f163c4a11628f55a4df523b3ef908290a45050565b6001600160e01b03198116811461164957600080fd5b50565b60006020828403121561165e57600080fd5b813561112981611633565b60005b8381101561168457818101518382015260200161166c565b838111156108055750506000910152565b600081518084526116ad816020860160208601611669565b601f01601f19169290920160200192915050565b6020815260006111296020830184611695565b6000602082840312156116e657600080fd5b5035919050565b80356001600160a01b038116811461170457600080fd5b919050565b6000806040838503121561171c57600080fd5b611725836116ed565b946020939093013593505050565b60008060006060848603121561174857600080fd5b611751846116ed565b925061175f602085016116ed565b9150604084013590509250925092565b60006020828403121561178157600080fd5b611129826116ed565b6000806040838503121561179d57600080fd5b6117a6836116ed565b9150602083013580151581146117bb57600080fd5b809150509250929050565b634e487b7160e01b600052604160045260246000fd5b600080600080608085870312156117f257600080fd5b6117fb856116ed565b9350611809602086016116ed565b925060408501359150606085013567ffffffffffffffff8082111561182d57600080fd5b818701915087601f83011261184157600080fd5b813581811115611853576118536117c6565b604051601f8201601f19908116603f0116810190838211818310171561187b5761187b6117c6565b816040528281528a602084870101111561189457600080fd5b82602086016020830137600060208483010152809550505050505092959194509250565b600080604083850312156118cb57600080fd5b6118d4836116ed565b91506118e2602084016116ed565b90509250929050565b600181811c908216806118ff57607f821691505b60208210810361191f57634e487b7160e01b600052602260045260246000fd5b50919050565b60208082526031908201527f4552433732313a207472616e736665722063616c6c6572206973206e6f74206f6040820152701ddb995c881b9bdc88185c1c1c9bdd9959607a1b606082015260800190565b60008451611988818460208901611669565b8083019050600160fd1b80825285516119a8816001850160208a01611669565b600192019182015283516119c3816002840160208801611669565b0160020195945050505050565b600081546119dd816118eb565b600182811680156119f55760018114611a0a57611a39565b60ff1984168752821515830287019450611a39565b8560005260208060002060005b85811015611a305781548a820152908401908201611a17565b50505082870194505b5050505092915050565b6000611a4f82876119d0565b8551611a5f818360208a01611669565b611a6b818301876119d0565b9150508351611a7e818360208801611669565b6c1e17ba32bc3a1f1e17b9bb339f60991b9101908152600d019695505050505050565b60008351611ab3818460208801611669565b835190830190611ac7818360208801611669565b01949350505050565b634e487b7160e01b600052601160045260246000fd5b600082821015611af857611af8611ad0565b500390565b60008219821115611b1057611b10611ad0565b500190565b6911925494d517d5d3d49160b21b815260008251611b3a81600a850160208701611669565b91909101600a0192915050565b634e487b7160e01b600052601260045260246000fd5b600082611b6c57611b6c611b47565b500690565b634e487b7160e01b600052603260045260246000fd5b6a14d150d3d39117d5d3d49160aa1b815260008251611bad81600b850160208701611669565b91909101600b0192915050565b69151212549117d5d3d49160b21b815260008251611b3a81600a850160208701611669565b6421a7a627a960d91b815260008251611bff816005850160208701611669565b9190910160050192915050565b693d913730b6b2911d101160b11b81528251600090611c3281600a850160208801611669565b7f222c20226465736372697074696f6e223a202241206c6567656e64204e465420600a918401918201527f636f6c6c656374696f6e20666f7220616c6c20636f6465666f72657374732072602a8201527f6561646572732e222c2022696d616765223a2022646174613a696d6167652f73604a8201526d1d99cade1b5b0ed8985cd94d8d0b60921b606a8201528351611cd2816078840160208801611669565b61227d60f01b60789290910191820152607a01949350505050565b7f646174613a6170706c69636174696f6e2f6a736f6e3b6261736536342c000000815260008251611d2581601d850160208701611669565b91909101601d0192915050565b601f82111561050357600081815260208120601f850160051c81016020861015611d595750805b601f850160051c820191505b81811015611d7857828155600101611d65565b505050505050565b815167ffffffffffffffff811115611d9a57611d9a6117c6565b611dae81611da884546118eb565b84611d32565b602080601f831160018114611de35760008415611dcb5750858301515b600019600386901b1c1916600185901b178555611d78565b600085815260208120601f198616915b82811015611e1257888601518255948401946001909101908401611df3565b5085821015611e305787850151600019600388901b60f8161c191681555b5050505050600190811b01905550565b60208082526032908201527f4552433732313a207472616e7366657220746f206e6f6e20455243373231526560408201527131b2b4bb32b91034b6b83632b6b2b73a32b960711b606082015260800190565b600060018201611ea457611ea4611ad0565b5060010190565b600082611eba57611eba611b47565b500490565b60008251611ed1818460208701611669565b9190910192915050565b6000816000190483118215151615611ef557611ef5611ad0565b500290565b6001600160a01b0385811682528416602082015260408101839052608060608201819052600090611f2d90830184611695565b9695505050505050565b600060208284031215611f4957600080fd5b81516111298161163356fe4142434445464748494a4b4c4d4e4f505152535455565758595a6162636465666768696a6b6c6d6e6f707172737475767778797a303132333435363738392b2fa264697066735822122070a6809fdd895f5653f75f98a2f6e0206fb96d166255ce47eedd5aa3c837ff3a64736f6c634300080f00333c73766720786d6c6e733d27687474703a2f2f7777772e77332e6f72672f323030302f73766727207072657365727665417370656374526174696f3d27784d696e594d696e206d656574272076696577426f783d273020302033353020333530273e3c7374796c653e2e62617365207b2066696c6c3a20234645464546453b20666f6e742d66616d696c793a204c6561677565205370617274616e3b20666f6e742d73697a653a20323470783b207d3c2f7374796c653e3c726563742077696474683d273130302527206865696768743d2731303025272066696c6c3d2727202f3e3c7465787420783d273530252720793d273530252720636c6173733d27626173652720646f6d696e616e742d626173656c696e653d276d6964646c652720746578742d616e63686f723d276d6964646c65273e","bytecodeSha1":"ad8a45ae867c974f11661aab469d37ec046d7611","compiler":{"evm_version":"istanbul","optimizer":{"enabled":true,"runs":200},"version":"0.8.15+commit.e14f2714"},"contractName":"LegendNFT","language":"Solidity","natspec":{"kind":"dev","methods":{"approve(address,uint256)":{"details":"See {IERC721-approve}."},"balanceOf(address)":{"details":"See {IERC721-balanceOf}."},"getApproved(uint256)":{"details":"See {IERC721-getApproved}."},"isApprovedForAll(address,address)":{"details":"See {IERC721-isApprovedForAll}."},"name()":{"details":"See {IERC721Metadata-name}."},"ownerOf(uint256)":{"details":"See {IERC721-ownerOf}."},"safeTransferFrom(address,address,uint256)":{"details":"See {IERC721-safeTransferFrom}."},"safeTransferFrom(address,address,uint256,bytes)":{"details":"See {IERC721-safeTransferFrom}."},"setApprovalForAll(address,bool)":{"details":"See {IERC721-setApprovalForAll}."},"supportsInterface(bytes4)":{"details":"See {IERC165-supportsInterface}."},"symbol()":{"details":"See {IERC721Metadata-symbol}."},"tokenURI(uint256)":{"details":"See {IERC721Metadata-tokenURI}."},"transferFrom(address,address,uint256)":{"details":"See {IERC721-transferFrom}."}},"version":1},"opcodes":"PUSH1 0x80 PUSH1 0x40 MSTORE CALLVALUE DUP1 ISZERO PUSH2 0x10 JUMPI PUSH1 0x0 DUP1 REVERT JUMPDEST POP PUSH1 0x4 CALLDATASIZE LT PUSH2 0x100 JUMPI PUSH1 0x0 CALLDATALOAD PUSH1 0xE0 SHR DUP1 PUSH4 0x6352211E GT PUSH2 0x97 JUMPI DUP1 PUSH4 0xA22CB465 GT PUSH2 0x66 JUMPI DUP1 PUSH4 0xA22CB465 EQ PUSH2 0x1FD JUMPI DUP1 PUSH4 0xB88D4FDE EQ PUSH2 0x210 JUMPI DUP1 PUSH4 0xC87B56DD EQ PUSH2 0x223 JUMPI DUP1 PUSH4 0xE985E9C5 EQ PUSH2 0x236 JUMPI PUSH1 0x0 DUP1 REVERT JUMPDEST DUP1 PUSH4 0x6352211E EQ PUSH2 0x1C7 JUMPI DUP1 PUSH4 0x6CB6B69C EQ PUSH2 0x1DA JUMPI DUP1 PUSH4 0x70A08231 EQ PUSH2 0x1E2 JUMPI DUP1 PUSH4 0x95D89B41 EQ PUSH2 0x1F5 JUMPI PUSH1 0x0 DUP1 REVERT JUMPDEST DUP1 PUSH4 0x95EA7B3 GT PUSH2 0xD3 JUMPI DUP1 PUSH4 0x95EA7B3 EQ PUSH2 0x183 JUMPI DUP1 PUSH4 0x18160DDD EQ PUSH2 0x198 JUMPI DUP1 PUSH4 0x23B872DD EQ PUSH2 0x1A1 JUMPI DUP1 PUSH4 0x42842E0E EQ PUSH2 0x1B4 JUMPI PUSH1 0x0 DUP1 REVERT JUMPDEST DUP1 PUSH4 0x1FFC9A7 EQ PUSH2 0x105 JUMPI DUP1 PUSH4 0x6047590 EQ PUSH2 0x12D JUMPI DUP1 PUSH4 0x6FDDE03 EQ PUSH2 0x143 JUMPI DUP1 PUSH4 0x81812FC EQ PUSH2 0x158 JUMPI JUMPDEST PUSH1 0x0 DUP1 REVERT JUMPDEST PUSH2 0x118 PUSH2 0x113 CALLDATASIZE PUSH1 0x4 PUSH2 0x164C JUMP JUMPDEST PUSH2 0x272 JUMP JUMPDEST PUSH1 0x40 MLOAD SWAP1 ISZERO ISZERO DUP2 MSTORE PUSH1 0x20 ADD JUMPDEST PUSH1 0x40 MLOAD DUP1 SWAP2 SUB SWAP1 RETURN JUMPDEST PUSH2 0x135 PUSH2 0x2C4 JUMP JUMPDEST PUSH1 0x40 MLOAD SWAP1 DUP2 MSTORE PUSH1 0x20 ADD PUSH2 0x124 JUMP JUMPDEST PUSH2 0x14B PUSH2 0x2D4 JUMP JUMPDEST PUSH1 0x40 MLOAD PUSH2 0x124 SWAP2 SWAP1 PUSH2 0x16C1 JUMP JUMPDEST PUSH2 0x16B PUSH2 0x166 CALLDATASIZE PUSH1 0x4 PUSH2 0x16D4 JUMP JUMPDEST PUSH2 0x366 JUMP JUMPDEST PUSH1 0x40 MLOAD PUSH1 0x1 PUSH1 0x1 PUSH1 0xA0 SHL SUB SWAP1 SWAP2 AND DUP2 MSTORE PUSH1 0x20 ADD PUSH2 0x124 JUMP JUMPDEST PUSH2 0x196 PUSH2 0x191 CALLDATASIZE PUSH1 0x4 PUSH2 0x1709 JUMP JUMPDEST PUSH2 0x3F3 JUMP JUMPDEST STOP JUMPDEST PUSH2 0x135 PUSH1 0x8 SLOAD DUP2 JUMP JUMPDEST PUSH2 0x196 PUSH2 0x1AF CALLDATASIZE PUSH1 0x4 PUSH2 0x1733 JUMP JUMPDEST PUSH2 0x508 JUMP JUMPDEST PUSH2 0x196 PUSH2 0x1C2 CALLDATASIZE PUSH1 0x4 PUSH2 0x1733 JUMP JUMPDEST PUSH2 0x539 JUMP JUMPDEST PUSH2 0x16B PUSH2 0x1D5 CALLDATASIZE PUSH1 0x4 PUSH2 0x16D4 JUMP JUMPDEST PUSH2 0x554 JUMP JUMPDEST PUSH2 0x196 PUSH2 0x5CB JUMP JUMPDEST PUSH2 0x135 PUSH2 0x1F0 CALLDATASIZE PUSH1 0x4 PUSH2 0x176F JUMP JUMPDEST PUSH2 0x72E JUMP JUMPDEST PUSH2 0x14B PUSH2 0x7B5 JUMP JUMPDEST PUSH2 0x196 PUSH2 0x20B CALLDATASIZE PUSH1 0x4 PUSH2 0x178A JUMP JUMPDEST PUSH2 0x7C4 JUMP JUMPDEST PUSH2 0x196 PUSH2 0x21E CALLDATASIZE PUSH1 0x4 PUSH2 0x17DC JUMP JUMPDEST PUSH2 0x7D3 JUMP JUMPDEST PUSH2 0x14B PUSH2 0x231 CALLDATASIZE PUSH1 0x4 PUSH2 0x16D4 JUMP JUMPDEST PUSH2 0x80B JUMP JUMPDEST PUSH2 0x118 PUSH2 0x244 CALLDATASIZE PUSH1 0x4 PUSH2 0x18B8 JUMP JUMPDEST PUSH1 0x1 PUSH1 0x1 PUSH1 0xA0 SHL SUB SWAP2 DUP3 AND PUSH1 0x0 SWAP1 DUP2 MSTORE PUSH1 0x5 PUSH1 0x20 SWAP1 DUP2 MSTORE PUSH1 0x40 DUP1 DUP4 KECCAK256 SWAP4 SWAP1 SWAP5 AND DUP3 MSTORE SWAP2 SWAP1 SWAP2 MSTORE KECCAK256 SLOAD PUSH1 0xFF AND SWAP1 JUMP JUMPDEST PUSH1 0x0 PUSH1 0x1 PUSH1 0x1 PUSH1 0xE0 SHL SUB NOT DUP3 AND PUSH4 0x80AC58CD PUSH1 0xE0 SHL EQ DUP1 PUSH2 0x2A3 JUMPI POP PUSH1 0x1 PUSH1 0x1 PUSH1 0xE0 SHL SUB NOT DUP3 AND PUSH4 0x5B5E139F PUSH1 0xE0 SHL EQ JUMPDEST DUP1 PUSH2 0x2BE JUMPI POP PUSH4 0x1FFC9A7 PUSH1 0xE0 SHL PUSH1 0x1 PUSH1 0x1 PUSH1 0xE0 SHL SUB NOT DUP4 AND EQ JUMPDEST SWAP3 SWAP2 POP POP JUMP JUMPDEST PUSH1 0x0 PUSH2 0x2CF PUSH1 0x7 SLOAD SWAP1 JUMP JUMPDEST SWAP1 POP SWAP1 JUMP JUMPDEST PUSH1 0x60 PUSH1 0x0 DUP1 SLOAD PUSH2 0x2E3 SWAP1 PUSH2 0x18EB JUMP JUMPDEST DUP1 PUSH1 0x1F ADD PUSH1 0x20 DUP1 SWAP2 DIV MUL PUSH1 0x20 ADD PUSH1 0x40 MLOAD SWAP1 DUP2 ADD PUSH1 0x40 MSTORE DUP1 SWAP3 SWAP2 SWAP1 DUP2 DUP2 MSTORE PUSH1 0x20 ADD DUP3 DUP1 SLOAD PUSH2 0x30F SWAP1 PUSH2 0x18EB JUMP JUMPDEST DUP1 ISZERO PUSH2 0x35C JUMPI DUP1 PUSH1 0x1F LT PUSH2 0x331 JUMPI PUSH2 0x100 DUP1 DUP4 SLOAD DIV MUL DUP4 MSTORE SWAP2 PUSH1 0x20 ADD SWAP2 PUSH2 0x35C JUMP JUMPDEST DUP3 ADD SWAP2 SWAP1 PUSH1 0x0 MSTORE PUSH1 0x20 PUSH1 0x0 KECCAK256 SWAP1 JUMPDEST DUP2 SLOAD DUP2 MSTORE SWAP1 PUSH1 0x1 ADD SWAP1 PUSH1 0x20 ADD DUP1 DUP4 GT PUSH2 0x33F JUMPI DUP3 SWAP1 SUB PUSH1 0x1F AND DUP3 ADD SWAP2 JUMPDEST POP POP POP POP POP SWAP1 POP SWAP1 JUMP JUMPDEST PUSH1 0x0 PUSH2 0x371 DUP3 PUSH2 0x981 JUMP JUMPDEST PUSH2 0x3D7 JUMPI PUSH1 0x40 MLOAD PUSH3 0x461BCD PUSH1 0xE5 SHL DUP2 MSTORE PUSH1 0x20 PUSH1 0x4 DUP3 ADD MSTORE PUSH1 0x2C PUSH1 0x24 DUP3 ADD MSTORE PUSH32 0x4552433732313A20617070726F76656420717565727920666F72206E6F6E6578 PUSH1 0x44 DUP3 ADD MSTORE PUSH12 0x34B9BA32B73A103A37B5B2B7 PUSH1 0xA1 SHL PUSH1 0x64 DUP3 ADD MSTORE PUSH1 0x84 ADD JUMPDEST PUSH1 0x40 MLOAD DUP1 SWAP2 SUB SWAP1 REVERT JUMPDEST POP PUSH1 0x0 SWAP1 DUP2 MSTORE PUSH1 0x4 PUSH1 0x20 MSTORE PUSH1 0x40 SWAP1 KECCAK256 SLOAD PUSH1 0x1 PUSH1 0x1 PUSH1 0xA0 SHL SUB AND SWAP1 JUMP JUMPDEST PUSH1 0x0 PUSH2 0x3FE DUP3 PUSH2 0x554 JUMP JUMPDEST SWAP1 POP DUP1 PUSH1 0x1 PUSH1 0x1 PUSH1 0xA0 SHL SUB AND DUP4 PUSH1 0x1 PUSH1 0x1 PUSH1 0xA0 SHL SUB AND SUB PUSH2 0x46B JUMPI PUSH1 0x40 MLOAD PUSH3 0x461BCD PUSH1 0xE5 SHL DUP2 MSTORE PUSH1 0x20 PUSH1 0x4 DUP3 ADD MSTORE PUSH1 0x21 PUSH1 0x24 DUP3 ADD MSTORE PUSH32 0x4552433732313A20617070726F76616C20746F2063757272656E74206F776E65 PUSH1 0x44 DUP3 ADD MSTORE PUSH1 0x39 PUSH1 0xF9 SHL PUSH1 0x64 DUP3 ADD MSTORE PUSH1 0x84 ADD PUSH2 0x3CE JUMP JUMPDEST CALLER PUSH1 0x1 PUSH1 0x1 PUSH1 0xA0 SHL SUB DUP3 AND EQ DUP1 PUSH2 0x487 JUMPI POP PUSH2 0x487 DUP2 CALLER PUSH2 0x244 JUMP JUMPDEST PUSH2 0x4F9 JUMPI PUSH1 0x40 MLOAD PUSH3 0x461BCD PUSH1 0xE5 SHL DUP2 MSTORE PUSH1 0x20 PUSH1 0x4 DUP3 ADD MSTORE PUSH1 0x38 PUSH1 0x24 DUP3 ADD MSTORE PUSH32 0x4552433732313A20617070726F76652063616C6C6572206973206E6F74206F77 PUSH1 0x44 DUP3 ADD MSTORE PUSH32 0x6E6572206E6F7220617070726F76656420666F7220616C6C0000000000000000 PUSH1 0x64 DUP3 ADD MSTORE PUSH1 0x84 ADD PUSH2 0x3CE JUMP JUMPDEST PUSH2 0x503 DUP4 DUP4 PUSH2 0x99E JUMP JUMPDEST POP POP POP JUMP JUMPDEST PUSH2 0x512 CALLER DUP3 PUSH2 0xA0C JUMP JUMPDEST PUSH2 0x52E JUMPI PUSH1 0x40 MLOAD PUSH3 0x461BCD PUSH1 0xE5 SHL DUP2 MSTORE PUSH1 0x4 ADD PUSH2 0x3CE SWAP1 PUSH2 0x1925 JUMP JUMPDEST PUSH2 0x503 DUP4 DUP4 DUP4 PUSH2 0xAF2 JUMP JUMPDEST PUSH2 0x503 DUP4 DUP4 DUP4 PUSH1 0x40 MLOAD DUP1 PUSH1 0x20 ADD PUSH1 0x40 MSTORE DUP1 PUSH1 0x0 DUP2 MSTORE POP PUSH2 0x7D3 JUMP JUMPDEST PUSH1 0x0 DUP2 DUP2 MSTORE PUSH1 0x2 PUSH1 0x20 MSTORE PUSH1 0x40 DUP2 KECCAK256 SLOAD PUSH1 0x1 PUSH1 0x1 PUSH1 0xA0 SHL SUB AND DUP1 PUSH2 0x2BE JUMPI PUSH1 0x40 MLOAD PUSH3 0x461BCD PUSH1 0xE5 SHL DUP2 MSTORE PUSH1 0x20 PUSH1 0x4 DUP3 ADD MSTORE PUSH1 0x29 PUSH1 0x24 DUP3 ADD MSTORE PUSH32 0x4552433732313A206F776E657220717565727920666F72206E6F6E6578697374 PUSH1 0x44 DUP3 ADD MSTORE PUSH9 0x32B73A103A37B5B2B7 PUSH1 0xB9 SHL PUSH1 0x64 DUP3 ADD MSTORE PUSH1 0x84 ADD PUSH2 0x3CE JUMP JUMPDEST PUSH1 0x0 PUSH2 0x5D6 PUSH1 0x7 SLOAD SWAP1 JUMP JUMPDEST SWAP1 POP PUSH1 0x8 SLOAD DUP2 LT PUSH2 0x629 JUMPI PUSH1 0x40 MLOAD PUSH3 0x461BCD PUSH1 0xE5 SHL DUP2 MSTORE PUSH1 0x20 PUSH1 0x4 DUP3 ADD MSTORE PUSH1 0x1E PUSH1 0x24 DUP3 ADD MSTORE PUSH32 0x546F74616C20737570706C7920686173206265656E2072656163686564210000 PUSH1 0x44 DUP3 ADD MSTORE PUSH1 0x64 ADD PUSH2 0x3CE JUMP JUMPDEST PUSH1 0x0 PUSH2 0x634 DUP3 PUSH2 0xC92 JUMP JUMPDEST SWAP1 POP PUSH1 0x0 PUSH2 0x641 DUP4 PUSH2 0xD86 JUMP JUMPDEST SWAP1 POP PUSH1 0x0 PUSH2 0x64E DUP5 PUSH2 0xDCB JUMP JUMPDEST SWAP1 POP PUSH1 0x0 PUSH2 0x65B DUP6 PUSH2 0xE10 JUMP JUMPDEST SWAP1 POP PUSH1 0x0 DUP5 DUP5 DUP5 PUSH1 0x40 MLOAD PUSH1 0x20 ADD PUSH2 0x674 SWAP4 SWAP3 SWAP2 SWAP1 PUSH2 0x1976 JUMP JUMPDEST PUSH1 0x40 MLOAD PUSH1 0x20 DUP2 DUP4 SUB SUB DUP2 MSTORE SWAP1 PUSH1 0x40 MSTORE SWAP1 POP PUSH1 0x0 PUSH1 0x9 DUP4 PUSH1 0xA DUP5 PUSH1 0x40 MLOAD PUSH1 0x20 ADD PUSH2 0x6A0 SWAP5 SWAP4 SWAP3 SWAP2 SWAP1 PUSH2 0x1A43 JUMP JUMPDEST PUSH1 0x40 MLOAD PUSH1 0x20 DUP2 DUP4 SUB SUB DUP2 MSTORE SWAP1 PUSH1 0x40 MSTORE SWAP1 POP PUSH1 0x0 PUSH2 0x6BD DUP4 DUP4 PUSH2 0xE55 JUMP JUMPDEST SWAP1 POP PUSH2 0x6C9 CALLER DUP10 PUSH2 0xEB9 JUMP JUMPDEST PUSH2 0x6D3 DUP9 DUP3 PUSH2 0xED3 JUMP JUMPDEST PUSH2 0x6E1 PUSH1 0x7 DUP1 SLOAD PUSH1 0x1 ADD SWAP1 SSTORE JUMP JUMPDEST PUSH32 0x7306D6C01E7A3353E6A3BBE61F959B7E8DE3AF644E710B3B82DE5ECC2090229E CALLER PUSH1 0x40 DUP1 MLOAD PUSH1 0x1 PUSH1 0x1 PUSH1 0xA0 SHL SUB SWAP1 SWAP3 AND DUP3 MSTORE PUSH1 0x20 DUP3 ADD DUP12 SWAP1 MSTORE ADD PUSH1 0x40 MLOAD DUP1 SWAP2 SUB SWAP1 LOG1 POP POP POP POP POP POP POP POP JUMP JUMPDEST PUSH1 0x0 PUSH1 0x1 PUSH1 0x1 PUSH1 0xA0 SHL SUB DUP3 AND PUSH2 0x799 JUMPI PUSH1 0x40 MLOAD PUSH3 0x461BCD PUSH1 0xE5 SHL DUP2 MSTORE PUSH1 0x20 PUSH1 0x4 DUP3 ADD MSTORE PUSH1 0x2A PUSH1 0x24 DUP3 ADD MSTORE PUSH32 0x4552433732313A2062616C616E636520717565727920666F7220746865207A65 PUSH1 0x44 DUP3 ADD MSTORE PUSH10 0x726F2061646472657373 PUSH1 0xB0 SHL PUSH1 0x64 DUP3 ADD MSTORE PUSH1 0x84 ADD PUSH2 0x3CE JUMP JUMPDEST POP PUSH1 0x1 PUSH1 0x1 PUSH1 0xA0 SHL SUB AND PUSH1 0x0 SWAP1 DUP2 MSTORE PUSH1 0x3 PUSH1 0x20 MSTORE PUSH1 0x40 SWAP1 KECCAK256 SLOAD SWAP1 JUMP JUMPDEST PUSH1 0x60 PUSH1 0x1 DUP1 SLOAD PUSH2 0x2E3 SWAP1 PUSH2 0x18EB JUMP JUMPDEST PUSH2 0x7CF CALLER DUP4 DUP4 PUSH2 0xF57 JUMP JUMPDEST POP POP JUMP JUMPDEST PUSH2 0x7DD CALLER DUP4 PUSH2 0xA0C JUMP JUMPDEST PUSH2 0x7F9 JUMPI PUSH1 0x40 MLOAD PUSH3 0x461BCD PUSH1 0xE5 SHL DUP2 MSTORE PUSH1 0x4 ADD PUSH2 0x3CE SWAP1 PUSH2 0x1925 JUMP JUMPDEST PUSH2 0x805 DUP5 DUP5 DUP5 DUP5 PUSH2 0x1025 JUMP JUMPDEST POP POP POP POP JUMP JUMPDEST PUSH1 0x60 PUSH2 0x816 DUP3 PUSH2 0x981 JUMP JUMPDEST PUSH2 0x87C JUMPI PUSH1 0x40 MLOAD PUSH3 0x461BCD PUSH1 0xE5 SHL DUP2 MSTORE PUSH1 0x20 PUSH1 0x4 DUP3 ADD MSTORE PUSH1 0x31 PUSH1 0x24 DUP3 ADD MSTORE PUSH32 0x45524337323155524953746F726167653A2055524920717565727920666F7220 PUSH1 0x44 DUP3 ADD MSTORE PUSH17 0x3737B732BC34B9BA32B73A103A37B5B2B7 PUSH1 0x79 SHL PUSH1 0x64 DUP3 ADD MSTORE PUSH1 0x84 ADD PUSH2 0x3CE JUMP JUMPDEST PUSH1 0x0 DUP3 DUP2 MSTORE PUSH1 0x6 PUSH1 0x20 MSTORE PUSH1 0x40 DUP2 KECCAK256 DUP1 SLOAD PUSH2 0x895 SWAP1 PUSH2 0x18EB JUMP JUMPDEST DUP1 PUSH1 0x1F ADD PUSH1 0x20 DUP1 SWAP2 DIV MUL PUSH1 0x20 ADD PUSH1 0x40 MLOAD SWAP1 DUP2 ADD PUSH1 0x40 MSTORE DUP1 SWAP3 SWAP2 SWAP1 DUP2 DUP2 MSTORE PUSH1 0x20 ADD DUP3 DUP1 SLOAD PUSH2 0x8C1 SWAP1 PUSH2 0x18EB JUMP JUMPDEST DUP1 ISZERO PUSH2 0x90E JUMPI DUP1 PUSH1 0x1F LT PUSH2 0x8E3 JUMPI PUSH2 0x100 DUP1 DUP4 SLOAD DIV MUL DUP4 MSTORE SWAP2 PUSH1 0x20 ADD SWAP2 PUSH2 0x90E JUMP JUMPDEST DUP3 ADD SWAP2 SWAP1 PUSH1 0x0 MSTORE PUSH1 0x20 PUSH1 0x0 KECCAK256 SWAP1 JUMPDEST DUP2 SLOAD DUP2 MSTORE SWAP1 PUSH1 0x1 ADD SWAP1 PUSH1 0x20 ADD DUP1 DUP4 GT PUSH2 0x8F1 JUMPI DUP3 SWAP1 SUB PUSH1 0x1F AND DUP3 ADD SWAP2 JUMPDEST POP POP POP POP POP SWAP1 POP PUSH1 0x0 PUSH2 0x92C PUSH1 0x40 DUP1 MLOAD PUSH1 0x20 DUP2 ADD SWAP1 SWAP2 MSTORE PUSH1 0x0 DUP2 MSTORE SWAP1 JUMP JUMPDEST SWAP1 POP DUP1 MLOAD PUSH1 0x0 SUB PUSH2 0x93E JUMPI POP SWAP3 SWAP2 POP POP JUMP JUMPDEST DUP2 MLOAD ISZERO PUSH2 0x970 JUMPI DUP1 DUP3 PUSH1 0x40 MLOAD PUSH1 0x20 ADD PUSH2 0x958 SWAP3 SWAP2 SWAP1 PUSH2 0x1AA1 JUMP JUMPDEST PUSH1 0x40 MLOAD PUSH1 0x20 DUP2 DUP4 SUB SUB DUP2 MSTORE SWAP1 PUSH1 0x40 MSTORE SWAP3 POP POP POP SWAP2 SWAP1 POP JUMP JUMPDEST PUSH2 0x979 DUP5 PUSH2 0x1058 JUMP JUMPDEST SWAP5 SWAP4 POP POP POP POP JUMP JUMPDEST PUSH1 0x0 SWAP1 DUP2 MSTORE PUSH1 0x2 PUSH1 0x20 MSTORE PUSH1 0x40 SWAP1 KECCAK256 SLOAD PUSH1 0x1 PUSH1 0x1 PUSH1 0xA0 SHL SUB AND ISZERO ISZERO SWAP1 JUMP JUMPDEST PUSH1 0x0 DUP2 DUP2 MSTORE PUSH1 0x4 PUSH1 0x20 MSTORE PUSH1 0x40 SWAP1 KECCAK256 DUP1 SLOAD PUSH1 0x1 PUSH1 0x1 PUSH1 0xA0 SHL SUB NOT AND PUSH1 0x1 PUSH1 0x1 PUSH1 0xA0 SHL SUB DUP5 AND SWAP1 DUP2 OR SWAP1 SWAP2 SSTORE DUP2 SWAP1 PUSH2 0x9D3 DUP3 PUSH2 0x554 JUMP JUMPDEST PUSH1 0x1 PUSH1 0x1 PUSH1 0xA0 SHL SUB AND PUSH32 0x8C5BE1E5EBEC7D5BD14F71427D1E84F3DD0314C0F7B2291E5B200AC8C7C3B925 PUSH1 0x40 MLOAD PUSH1 0x40 MLOAD DUP1 SWAP2 SUB SWAP1 LOG4 POP POP JUMP JUMPDEST PUSH1 0x0 PUSH2 0xA17 DUP3 PUSH2 0x981 JUMP JUMPDEST PUSH2 0xA78 JUMPI PUSH1 0x40 MLOAD PUSH3 0x461BCD PUSH1 0xE5 SHL DUP2 MSTORE PUSH1 0x20 PUSH1 0x4 DUP3 ADD MSTORE PUSH1 0x2C PUSH1 0x24 DUP3 ADD MSTORE PUSH32 0x4552433732313A206F70657261746F7220717565727920666F72206E6F6E6578 PUSH1 0x44 DUP3 ADD MSTORE PUSH12 0x34B9BA32B73A103A37B5B2B7 PUSH1 0xA1 SHL PUSH1 0x64 DUP3 ADD MSTORE PUSH1 0x84 ADD PUSH2 0x3CE JUMP JUMPDEST PUSH1 0x0 PUSH2 0xA83 DUP4 PUSH2 0x554 JUMP JUMPDEST SWAP1 POP DUP1 PUSH1 0x1 PUSH1 0x1 PUSH1 0xA0 SHL SUB AND DUP5 PUSH1 0x1 PUSH1 0x1 PUSH1 0xA0 SHL SUB AND EQ DUP1 PUSH2 0xABE JUMPI POP DUP4 PUSH1 0x1 PUSH1 0x1 PUSH1 0xA0 SHL SUB AND PUSH2 0xAB3 DUP5 PUSH2 0x366 JUMP JUMPDEST PUSH1 0x1 PUSH1 0x1 PUSH1 0xA0 SHL SUB AND EQ JUMPDEST DUP1 PUSH2 0x979 JUMPI POP PUSH1 0x1 PUSH1 0x1 PUSH1 0xA0 SHL SUB DUP1 DUP3 AND PUSH1 0x0 SWAP1 DUP2 MSTORE PUSH1 0x5 PUSH1 0x20 SWAP1 DUP2 MSTORE PUSH1 0x40 DUP1 DUP4 KECCAK256 SWAP4 DUP9 AND DUP4 MSTORE SWAP3 SWAP1 MSTORE KECCAK256 SLOAD PUSH1 0xFF AND PUSH2 0x979 JUMP JUMPDEST DUP3 PUSH1 0x1 PUSH1 0x1 PUSH1 0xA0 SHL SUB AND PUSH2 0xB05 DUP3 PUSH2 0x554 JUMP JUMPDEST PUSH1 0x1 PUSH1 0x1 PUSH1 0xA0 SHL SUB AND EQ PUSH2 0xB6D JUMPI PUSH1 0x40 MLOAD PUSH3 0x461BCD PUSH1 0xE5 SHL DUP2 MSTORE PUSH1 0x20 PUSH1 0x4 DUP3 ADD MSTORE PUSH1 0x29 PUSH1 0x24 DUP3 ADD MSTORE PUSH32 0x4552433732313A207472616E73666572206F6620746F6B656E20746861742069 PUSH1 0x44 DUP3 ADD MSTORE PUSH9 0x39903737BA1037BBB7 PUSH1 0xB9 SHL PUSH1 0x64 DUP3 ADD MSTORE PUSH1 0x84 ADD PUSH2 0x3CE JUMP JUMPDEST PUSH1 0x1 PUSH1 0x1 PUSH1 0xA0 SHL SUB DUP3 AND PUSH2 0xBCF JUMPI PUSH1 0x40 MLOAD PUSH3 0x461BCD PUSH1 0xE5 SHL DUP2 MSTORE PUSH1 0x20 PUSH1 0x4 DUP3 ADD MSTORE PUSH1 0x24 DUP1 DUP3 ADD MSTORE PUSH32 0x4552433732313A207472616E7366657220746F20746865207A65726F20616464 PUSH1 0x44 DUP3 ADD MSTORE PUSH4 0x72657373 PUSH1 0xE0 SHL PUSH1 0x64 DUP3 ADD MSTORE PUSH1 0x84 ADD PUSH2 0x3CE JUMP JUMPDEST PUSH2 0xBDA PUSH1 0x0 DUP3 PUSH2 0x99E JUMP JUMPDEST PUSH1 0x1 PUSH1 0x1 PUSH1 0xA0 SHL SUB DUP4 AND PUSH1 0x0 SWAP1 DUP2 MSTORE PUSH1 0x3 PUSH1 0x20 MSTORE PUSH1 0x40 DUP2 KECCAK256 DUP1 SLOAD PUSH1 0x1 SWAP3 SWAP1 PUSH2 0xC03 SWAP1 DUP5 SWAP1 PUSH2 0x1AE6 JUMP JUMPDEST SWAP1 SWAP2 SSTORE POP POP PUSH1 0x1 PUSH1 0x1 PUSH1 0xA0 SHL SUB DUP3 AND PUSH1 0x0 SWAP1 DUP2 MSTORE PUSH1 0x3 PUSH1 0x20 MSTORE PUSH1 0x40 DUP2 KECCAK256 DUP1 SLOAD PUSH1 0x1 SWAP3 SWAP1 PUSH2 0xC31 SWAP1 DUP5 SWAP1 PUSH2 0x1AFD JUMP JUMPDEST SWAP1 SWAP2 SSTORE POP POP PUSH1 0x0 DUP2 DUP2 MSTORE PUSH1 0x2 PUSH1 0x20 MSTORE PUSH1 0x40 DUP1 DUP3 KECCAK256 DUP1 SLOAD PUSH1 0x1 PUSH1 0x1 PUSH1 0xA0 SHL SUB NOT AND PUSH1 0x1 PUSH1 0x1 PUSH1 0xA0 SHL SUB DUP7 DUP2 AND SWAP2 DUP3 OR SWAP1 SWAP3 SSTORE SWAP2 MLOAD DUP5 SWAP4 SWAP2 DUP8 AND SWAP2 PUSH32 0xDDF252AD1BE2C89B69C2B068FC378DAA952BA7F163C4A11628F55A4DF523B3EF SWAP2 LOG4 POP POP POP JUMP JUMPDEST PUSH1 0x60 PUSH1 0x0 PUSH2 0xCC6 PUSH2 0xCA2 DUP5 PUSH2 0x1130 JUMP JUMPDEST PUSH1 0x40 MLOAD PUSH1 0x20 ADD PUSH2 0xCB2 SWAP2 SWAP1 PUSH2 0x1B15 JUMP JUMPDEST PUSH1 0x40 MLOAD PUSH1 0x20 DUP2 DUP4 SUB SUB DUP2 MSTORE SWAP1 PUSH1 0x40 MSTORE PUSH2 0x1231 JUMP JUMPDEST PUSH1 0xB SLOAD SWAP1 SWAP2 POP PUSH2 0xCD6 SWAP1 DUP3 PUSH2 0x1B5D JUMP JUMPDEST SWAP1 POP PUSH1 0xB DUP2 DUP2 SLOAD DUP2 LT PUSH2 0xCEB JUMPI PUSH2 0xCEB PUSH2 0x1B71 JUMP JUMPDEST SWAP1 PUSH1 0x0 MSTORE PUSH1 0x20 PUSH1 0x0 KECCAK256 ADD DUP1 SLOAD PUSH2 0xD00 SWAP1 PUSH2 0x18EB JUMP JUMPDEST DUP1 PUSH1 0x1F ADD PUSH1 0x20 DUP1 SWAP2 DIV MUL PUSH1 0x20 ADD PUSH1 0x40 MLOAD SWAP1 DUP2 ADD PUSH1 0x40 MSTORE DUP1 SWAP3 SWAP2 SWAP1 DUP2 DUP2 MSTORE PUSH1 0x20 ADD DUP3 DUP1 SLOAD PUSH2 0xD2C SWAP1 PUSH2 0x18EB JUMP JUMPDEST DUP1 ISZERO PUSH2 0xD79 JUMPI DUP1 PUSH1 0x1F LT PUSH2 0xD4E JUMPI PUSH2 0x100 DUP1 DUP4 SLOAD DIV MUL DUP4 MSTORE SWAP2 PUSH1 0x20 ADD SWAP2 PUSH2 0xD79 JUMP JUMPDEST DUP3 ADD SWAP2 SWAP1 PUSH1 0x0 MSTORE PUSH1 0x20 PUSH1 0x0 KECCAK256 SWAP1 JUMPDEST DUP2 SLOAD DUP2 MSTORE SWAP1 PUSH1 0x1 ADD SWAP1 PUSH1 0x20 ADD DUP1 DUP4 GT PUSH2 0xD5C JUMPI DUP3 SWAP1 SUB PUSH1 0x1F AND DUP3 ADD SWAP2 JUMPDEST POP POP POP POP POP SWAP2 POP POP SWAP2 SWAP1 POP JUMP JUMPDEST PUSH1 0x60 PUSH1 0x0 PUSH2 0xDA6 PUSH2 0xD96 DUP5 PUSH2 0x1130 JUMP JUMPDEST PUSH1 0x40 MLOAD PUSH1 0x20 ADD PUSH2 0xCB2 SWAP2 SWAP1 PUSH2 0x1B87 JUMP JUMPDEST PUSH1 0xC SLOAD SWAP1 SWAP2 POP PUSH2 0xDB6 SWAP1 DUP3 PUSH2 0x1B5D JUMP JUMPDEST SWAP1 POP PUSH1 0xC DUP2 DUP2 SLOAD DUP2 LT PUSH2 0xCEB JUMPI PUSH2 0xCEB PUSH2 0x1B71 JUMP JUMPDEST PUSH1 0x60 PUSH1 0x0 PUSH2 0xDEB PUSH2 0xDDB DUP5 PUSH2 0x1130 JUMP JUMPDEST PUSH1 0x40 MLOAD PUSH1 0x20 ADD PUSH2 0xCB2 SWAP2 SWAP1 PUSH2 0x1BBA JUMP JUMPDEST PUSH1 0xD SLOAD SWAP1 SWAP2 POP PUSH2 0xDFB SWAP1 DUP3 PUSH2 0x1B5D JUMP JUMPDEST SWAP1 POP PUSH1 0xD DUP2 DUP2 SLOAD DUP2 LT PUSH2 0xCEB JUMPI PUSH2 0xCEB PUSH2 0x1B71 JUMP JUMPDEST PUSH1 0x60 PUSH1 0x0 PUSH2 0xE30 PUSH2 0xE20 DUP5 PUSH2 0x1130 JUMP JUMPDEST PUSH1 0x40 MLOAD PUSH1 0x20 ADD PUSH2 0xCB2 SWAP2 SWAP1 PUSH2 0x1BDF JUMP JUMPDEST PUSH1 0xE SLOAD SWAP1 SWAP2 POP PUSH2 0xE40 SWAP1 DUP3 PUSH2 0x1B5D JUMP JUMPDEST SWAP1 POP PUSH1 0xE DUP2 DUP2 SLOAD DUP2 LT PUSH2 0xCEB JUMPI PUSH2 0xCEB PUSH2 0x1B71 JUMP JUMPDEST PUSH1 0x60 PUSH1 0x0 PUSH2 0xE8B DUP5 PUSH2 0xE66 DUP6 PUSH2 0x1262 JUMP JUMPDEST PUSH1 0x40 MLOAD PUSH1 0x20 ADD PUSH2 0xE77 SWAP3 SWAP2 SWAP1 PUSH2 0x1C0C JUMP JUMPDEST PUSH1 0x40 MLOAD PUSH1 0x20 DUP2 DUP4 SUB SUB DUP2 MSTORE SWAP1 PUSH1 0x40 MSTORE PUSH2 0x1262 JUMP JUMPDEST SWAP1 POP PUSH1 0x0 DUP2 PUSH1 0x40 MLOAD PUSH1 0x20 ADD PUSH2 0xEA0 SWAP2 SWAP1 PUSH2 0x1CED JUMP JUMPDEST PUSH1 0x40 DUP1 MLOAD DUP1 DUP4 SUB PUSH1 0x1F NOT ADD DUP2 MSTORE SWAP2 SWAP1 MSTORE SWAP6 SWAP5 POP POP POP POP POP JUMP JUMPDEST PUSH2 0x7CF DUP3 DUP3 PUSH1 0x40 MLOAD DUP1 PUSH1 0x20 ADD PUSH1 0x40 MSTORE DUP1 PUSH1 0x0 DUP2 MSTORE POP PUSH2 0x13CC JUMP JUMPDEST PUSH2 0xEDC DUP3 PUSH2 0x981 JUMP JUMPDEST PUSH2 0xF3F JUMPI PUSH1 0x40 MLOAD PUSH3 0x461BCD PUSH1 0xE5 SHL DUP2 MSTORE PUSH1 0x20 PUSH1 0x4 DUP3 ADD MSTORE PUSH1 0x2E PUSH1 0x24 DUP3 ADD MSTORE PUSH32 0x45524337323155524953746F726167653A2055524920736574206F66206E6F6E PUSH1 0x44 DUP3 ADD MSTORE PUSH14 0x32BC34B9BA32B73A103A37B5B2B7 PUSH1 0x91 SHL PUSH1 0x64 DUP3 ADD MSTORE PUSH1 0x84 ADD PUSH2 0x3CE JUMP JUMPDEST PUSH1 0x0 DUP3 DUP2 MSTORE PUSH1 0x6 PUSH1 0x20 MSTORE PUSH1 0x40 SWAP1 KECCAK256 PUSH2 0x503 DUP3 DUP3 PUSH2 0x1D80 JUMP JUMPDEST DUP2 PUSH1 0x1 PUSH1 0x1 PUSH1 0xA0 SHL SUB AND DUP4 PUSH1 0x1 PUSH1 0x1 PUSH1 0xA0 SHL SUB AND SUB PUSH2 0xFB8 JUMPI PUSH1 0x40 MLOAD PUSH3 0x461BCD PUSH1 0xE5 SHL DUP2 MSTORE PUSH1 0x20 PUSH1 0x4 DUP3 ADD MSTORE PUSH1 0x19 PUSH1 0x24 DUP3 ADD MSTORE PUSH32 0x4552433732313A20617070726F766520746F2063616C6C657200000000000000 PUSH1 0x44 DUP3 ADD MSTORE PUSH1 0x64 ADD PUSH2 0x3CE JUMP JUMPDEST PUSH1 0x1 PUSH1 0x1 PUSH1 0xA0 SHL SUB DUP4 DUP2 AND PUSH1 0x0 DUP2 DUP2 MSTORE PUSH1 0x5 PUSH1 0x20 SWAP1 DUP2 MSTORE PUSH1 0x40 DUP1 DUP4 KECCAK256 SWAP5 DUP8 AND DUP1 DUP5 MSTORE SWAP5 DUP3 MSTORE SWAP2 DUP3 SWAP1 KECCAK256 DUP1 SLOAD PUSH1 0xFF NOT AND DUP7 ISZERO ISZERO SWAP1 DUP2 OR SWAP1 SWAP2 SSTORE SWAP2 MLOAD SWAP2 DUP3 MSTORE PUSH32 0x17307EAB39AB6107E8899845AD3D59BD9653F200F220920489CA2B5937696C31 SWAP2 ADD PUSH1 0x40 MLOAD DUP1 SWAP2 SUB SWAP1 LOG3 POP POP POP JUMP JUMPDEST PUSH2 0x1030 DUP5 DUP5 DUP5 PUSH2 0xAF2 JUMP JUMPDEST PUSH2 0x103C DUP5 DUP5 DUP5 DUP5 PUSH2 0x13FF JUMP JUMPDEST PUSH2 0x805 JUMPI PUSH1 0x40 MLOAD PUSH3 0x461BCD PUSH1 0xE5 SHL DUP2 MSTORE PUSH1 0x4 ADD PUSH2 0x3CE SWAP1 PUSH2 0x1E40 JUMP JUMPDEST PUSH1 0x60 PUSH2 0x1063 DUP3 PUSH2 0x981 JUMP JUMPDEST PUSH2 0x10C7 JUMPI PUSH1 0x40 MLOAD PUSH3 0x461BCD PUSH1 0xE5 SHL DUP2 MSTORE PUSH1 0x20 PUSH1 0x4 DUP3 ADD MSTORE PUSH1 0x2F PUSH1 0x24 DUP3 ADD MSTORE PUSH32 0x4552433732314D657461646174613A2055524920717565727920666F72206E6F PUSH1 0x44 DUP3 ADD MSTORE PUSH15 0x3732BC34B9BA32B73A103A37B5B2B7 PUSH1 0x89 SHL PUSH1 0x64 DUP3 ADD MSTORE PUSH1 0x84 ADD PUSH2 0x3CE JUMP JUMPDEST PUSH1 0x0 PUSH2 0x10DE PUSH1 0x40 DUP1 MLOAD PUSH1 0x20 DUP2 ADD SWAP1 SWAP2 MSTORE PUSH1 0x0 DUP2 MSTORE SWAP1 JUMP JUMPDEST SWAP1 POP PUSH1 0x0 DUP2 MLOAD GT PUSH2 0x10FE JUMPI PUSH1 0x40 MLOAD DUP1 PUSH1 0x20 ADD PUSH1 0x40 MSTORE DUP1 PUSH1 0x0 DUP2 MSTORE POP PUSH2 0x1129 JUMP JUMPDEST DUP1 PUSH2 0x1108 DUP5 PUSH2 0x1130 JUMP JUMPDEST PUSH1 0x40 MLOAD PUSH1 0x20 ADD PUSH2 0x1119 SWAP3 SWAP2 SWAP1 PUSH2 0x1AA1 JUMP JUMPDEST PUSH1 0x40 MLOAD PUSH1 0x20 DUP2 DUP4 SUB SUB DUP2 MSTORE SWAP1 PUSH1 0x40 MSTORE JUMPDEST SWAP4 SWAP3 POP POP POP JUMP JUMPDEST PUSH1 0x60 DUP2 PUSH1 0x0 SUB PUSH2 0x1157 JUMPI POP POP PUSH1 0x40 DUP1 MLOAD DUP1 DUP3 ADD SWAP1 SWAP2 MSTORE PUSH1 0x1 DUP2 MSTORE PUSH1 0x3 PUSH1 0xFC SHL PUSH1 0x20 DUP3 ADD MSTORE SWAP1 JUMP JUMPDEST DUP2 PUSH1 0x0 JUMPDEST DUP2 ISZERO PUSH2 0x1181 JUMPI DUP1 PUSH2 0x116B DUP2 PUSH2 0x1E92 JUMP JUMPDEST SWAP2 POP PUSH2 0x117A SWAP1 POP PUSH1 0xA DUP4 PUSH2 0x1EAB JUMP JUMPDEST SWAP2 POP PUSH2 0x115B JUMP JUMPDEST PUSH1 0x0 DUP2 PUSH8 0xFFFFFFFFFFFFFFFF DUP2 GT ISZERO PUSH2 0x119C JUMPI PUSH2 0x119C PUSH2 0x17C6 JUMP JUMPDEST PUSH1 0x40 MLOAD SWAP1 DUP1 DUP3 MSTORE DUP1 PUSH1 0x1F ADD PUSH1 0x1F NOT AND PUSH1 0x20 ADD DUP3 ADD PUSH1 0x40 MSTORE DUP1 ISZERO PUSH2 0x11C6 JUMPI PUSH1 0x20 DUP3 ADD DUP2 DUP1 CALLDATASIZE DUP4 CALLDATACOPY ADD SWAP1 POP JUMPDEST POP SWAP1 POP JUMPDEST DUP5 ISZERO PUSH2 0x979 JUMPI PUSH2 0x11DB PUSH1 0x1 DUP4 PUSH2 0x1AE6 JUMP JUMPDEST SWAP2 POP PUSH2 0x11E8 PUSH1 0xA DUP7 PUSH2 0x1B5D JUMP JUMPDEST PUSH2 0x11F3 SWAP1 PUSH1 0x30 PUSH2 0x1AFD JUMP JUMPDEST PUSH1 0xF8 SHL DUP2 DUP4 DUP2 MLOAD DUP2 LT PUSH2 0x1208 JUMPI PUSH2 0x1208 PUSH2 0x1B71 JUMP JUMPDEST PUSH1 0x20 ADD ADD SWAP1 PUSH1 0x1 PUSH1 0x1 PUSH1 0xF8 SHL SUB NOT AND SWAP1 DUP2 PUSH1 0x0 BYTE SWAP1 MSTORE8 POP PUSH2 0x122A PUSH1 0xA DUP7 PUSH2 0x1EAB JUMP JUMPDEST SWAP5 POP PUSH2 0x11CA JUMP JUMPDEST PUSH1 0x0 DUP2 PUSH1 0x40 MLOAD PUSH1 0x20 ADD PUSH2 0x1244 SWAP2 SWAP1 PUSH2 0x1EBF JUMP JUMPDEST PUSH1 0x40 DUP1 MLOAD PUSH1 0x1F NOT DUP2 DUP5 SUB ADD DUP2 MSTORE SWAP2 SWAP1 MSTORE DUP1 MLOAD PUSH1 0x20 SWAP1 SWAP2 ADD KECCAK256 SWAP3 SWAP2 POP POP JUMP JUMPDEST DUP1 MLOAD PUSH1 0x60 SWAP1 PUSH1 0x0 DUP2 SWAP1 SUB PUSH2 0x1286 JUMPI POP POP PUSH1 0x40 DUP1 MLOAD PUSH1 0x20 DUP2 ADD SWAP1 SWAP2 MSTORE PUSH1 0x0 DUP2 MSTORE SWAP2 SWAP1 POP JUMP JUMPDEST PUSH1 0x0 PUSH1 0x3 PUSH2 0x1295 DUP4 PUSH1 0x2 PUSH2 0x1AFD JUMP JUMPDEST PUSH2 0x129F SWAP2 SWAP1 PUSH2 0x1EAB JUMP JUMPDEST PUSH2 0x12AA SWAP1 PUSH1 0x4 PUSH2 0x1EDB JUMP JUMPDEST SWAP1 POP PUSH1 0x0 PUSH2 0x12B9 DUP3 PUSH1 0x20 PUSH2 0x1AFD JUMP JUMPDEST PUSH8 0xFFFFFFFFFFFFFFFF DUP2 GT ISZERO PUSH2 0x12D1 JUMPI PUSH2 0x12D1 PUSH2 0x17C6 JUMP JUMPDEST PUSH1 0x40 MLOAD SWAP1 DUP1 DUP3 MSTORE DUP1 PUSH1 0x1F ADD PUSH1 0x1F NOT AND PUSH1 0x20 ADD DUP3 ADD PUSH1 0x40 MSTORE DUP1 ISZERO PUSH2 0x12FB JUMPI PUSH1 0x20 DUP3 ADD DUP2 DUP1 CALLDATASIZE DUP4 CALLDATACOPY ADD SWAP1 POP JUMPDEST POP SWAP1 POP PUSH1 0x0 PUSH1 0x40 MLOAD DUP1 PUSH1 0x60 ADD PUSH1 0x40 MSTORE DUP1 PUSH1 0x40 DUP2 MSTORE PUSH1 0x20 ADD PUSH2 0x1F55 PUSH1 0x40 SWAP2 CODECOPY SWAP1 POP PUSH1 0x1 DUP2 ADD PUSH1 0x20 DUP4 ADD PUSH1 0x0 JUMPDEST DUP7 DUP2 LT ISZERO PUSH2 0x1387 JUMPI PUSH1 0x3 DUP2 DUP11 ADD DUP2 ADD MLOAD PUSH1 0x3F PUSH1 0x12 DUP3 SWAP1 SHR DUP2 AND DUP7 ADD MLOAD PUSH1 0xC DUP4 SWAP1 SHR DUP3 AND DUP8 ADD MLOAD PUSH1 0x6 DUP5 SWAP1 SHR DUP4 AND DUP9 ADD MLOAD SWAP3 SWAP1 SWAP4 AND DUP8 ADD MLOAD PUSH1 0x8 SWAP2 DUP3 SHL PUSH1 0xFF SWAP5 DUP6 AND ADD DUP3 SHL SWAP3 DUP5 AND SWAP3 SWAP1 SWAP3 ADD SWAP1 SHL SWAP2 AND ADD PUSH1 0xE0 SHL DUP4 MSTORE PUSH1 0x4 SWAP1 SWAP3 ADD SWAP2 ADD PUSH2 0x1326 JUMP JUMPDEST POP PUSH1 0x3 DUP7 MOD PUSH1 0x1 DUP2 EQ PUSH2 0x13A1 JUMPI PUSH1 0x2 DUP2 EQ PUSH2 0x13B2 JUMPI PUSH2 0x13BE JUMP JUMPDEST PUSH2 0x3D3D PUSH1 0xF0 SHL PUSH1 0x1 NOT DUP4 ADD MSTORE PUSH2 0x13BE JUMP JUMPDEST PUSH1 0x3D PUSH1 0xF8 SHL PUSH1 0x0 NOT DUP4 ADD MSTORE JUMPDEST POP POP POP SWAP2 DUP2 MSTORE SWAP5 SWAP4 POP POP POP POP JUMP JUMPDEST PUSH2 0x13D6 DUP4 DUP4 PUSH2 0x1500 JUMP JUMPDEST PUSH2 0x13E3 PUSH1 0x0 DUP5 DUP5 DUP5 PUSH2 0x13FF JUMP JUMPDEST PUSH2 0x503 JUMPI PUSH1 0x40 MLOAD PUSH3 0x461BCD PUSH1 0xE5 SHL DUP2 MSTORE PUSH1 0x4 ADD PUSH2 0x3CE SWAP1 PUSH2 0x1E40 JUMP JUMPDEST PUSH1 0x0 PUSH1 0x1 PUSH1 0x1 PUSH1 0xA0 SHL SUB DUP5 AND EXTCODESIZE ISZERO PUSH2 0x14F5 JUMPI PUSH1 0x40 MLOAD PUSH4 0xA85BD01 PUSH1 0xE1 SHL DUP2 MSTORE PUSH1 0x1 PUSH1 0x1 PUSH1 0xA0 SHL SUB DUP6 AND SWAP1 PUSH4 0x150B7A02 SWAP1 PUSH2 0x1443 SWAP1 CALLER SWAP1 DUP10 SWAP1 DUP9 SWAP1 DUP9 SWAP1 PUSH1 0x4 ADD PUSH2 0x1EFA JUMP JUMPDEST PUSH1 0x20 PUSH1 0x40 MLOAD DUP1 DUP4 SUB DUP2 PUSH1 0x0 DUP8 GAS CALL SWAP3 POP POP POP DUP1 ISZERO PUSH2 0x147E JUMPI POP PUSH1 0x40 DUP1 MLOAD PUSH1 0x1F RETURNDATASIZE SWAP1 DUP2 ADD PUSH1 0x1F NOT AND DUP3 ADD SWAP1 SWAP3 MSTORE PUSH2 0x147B SWAP2 DUP2 ADD SWAP1 PUSH2 0x1F37 JUMP JUMPDEST PUSH1 0x1 JUMPDEST PUSH2 0x14DB JUMPI RETURNDATASIZE DUP1 DUP1 ISZERO PUSH2 0x14AC JUMPI PUSH1 0x40 MLOAD SWAP2 POP PUSH1 0x1F NOT PUSH1 0x3F RETURNDATASIZE ADD AND DUP3 ADD PUSH1 0x40 MSTORE RETURNDATASIZE DUP3 MSTORE RETURNDATASIZE PUSH1 0x0 PUSH1 0x20 DUP5 ADD RETURNDATACOPY PUSH2 0x14B1 JUMP JUMPDEST PUSH1 0x60 SWAP2 POP JUMPDEST POP DUP1 MLOAD PUSH1 0x0 SUB PUSH2 0x14D3 JUMPI PUSH1 0x40 MLOAD PUSH3 0x461BCD PUSH1 0xE5 SHL DUP2 MSTORE PUSH1 0x4 ADD PUSH2 0x3CE SWAP1 PUSH2 0x1E40 JUMP JUMPDEST DUP1 MLOAD DUP2 PUSH1 0x20 ADD REVERT JUMPDEST PUSH1 0x1 PUSH1 0x1 PUSH1 0xE0 SHL SUB NOT AND PUSH4 0xA85BD01 PUSH1 0xE1 SHL EQ SWAP1 POP PUSH2 0x979 JUMP JUMPDEST POP PUSH1 0x1 SWAP5 SWAP4 POP POP POP POP JUMP JUMPDEST PUSH1 0x1 PUSH1 0x1 PUSH1 0xA0 SHL SUB DUP3 AND PUSH2 0x1556 JUMPI PUSH1 0x40 MLOAD PUSH3 0x461BCD PUSH1 0xE5 SHL DUP2 MSTORE PUSH1 0x20 PUSH1 0x4 DUP3 ADD DUP2 SWAP1 MSTORE PUSH1 0x24 DUP3 ADD MSTORE PUSH32 0x4552433732313A206D696E7420746F20746865207A65726F2061646472657373 PUSH1 0x44 DUP3 ADD MSTORE PUSH1 0x64 ADD PUSH2 0x3CE JUMP JUMPDEST PUSH2 0x155F DUP2 PUSH2 0x981 JUMP JUMPDEST ISZERO PUSH2 0x15AC JUMPI PUSH1 0x40 MLOAD PUSH3 0x461BCD PUSH1 0xE5 SHL DUP2 MSTORE PUSH1 0x20 PUSH1 0x4 DUP3 ADD MSTORE PUSH1 0x1C PUSH1 0x24 DUP3 ADD MSTORE PUSH32 0x4552433732313A20746F6B656E20616C7265616479206D696E74656400000000 PUSH1 0x44 DUP3 ADD MSTORE PUSH1 0x64 ADD PUSH2 0x3CE JUMP JUMPDEST PUSH1 0x1 PUSH1 0x1 PUSH1 0xA0 SHL SUB DUP3 AND PUSH1 0x0 SWAP1 DUP2 MSTORE PUSH1 0x3 PUSH1 0x20 MSTORE PUSH1 0x40 DUP2 KECCAK256 DUP1 SLOAD PUSH1 0x1 SWAP3 SWAP1 PUSH2 0x15D5 SWAP1 DUP5 SWAP1 PUSH2 0x1AFD JUMP JUMPDEST SWAP1 SWAP2 SSTORE POP POP PUSH1 0x0 DUP2 DUP2 MSTORE PUSH1 0x2 PUSH1 0x20 MSTORE PUSH1 0x40 DUP1 DUP3 KECCAK256 DUP1 SLOAD PUSH1 0x1 PUSH1 0x1 PUSH1 0xA0 SHL SUB NOT AND PUSH1 0x1 PUSH1 0x1 PUSH1 0xA0 SHL SUB DUP7 AND SWAP1 DUP2 OR SWAP1 SWAP2 SSTORE SWAP1 MLOAD DUP4 SWAP3 SWAP1 PUSH32 0xDDF252AD1BE2C89B69C2B068FC378DAA952BA7F163C4A11628F55A4DF523B3EF SWAP1 DUP3 SWAP1 LOG4 POP POP JUMP JUMPDEST PUSH1 0x1 PUSH1 0x1 PUSH1 0xE0 SHL SUB NOT DUP2 AND DUP2 EQ PUSH2 0x1649 JUMPI PUSH1 0x0 DUP1 REVERT JUMPDEST POP JUMP JUMPDEST PUSH1 0x0 PUSH1 0x20 DUP3 DUP5 SUB SLT ISZERO PUSH2 0x165E JUMPI PUSH1 0x0 DUP1 REVERT JUMPDEST DUP2 CALLDATALOAD PUSH2 0x1129 DUP2 PUSH2 0x1633 JUMP JUMPDEST PUSH1 0x0 JUMPDEST DUP4 DUP2 LT ISZERO PUSH2 0x1684 JUMPI DUP2 DUP2 ADD MLOAD DUP4 DUP3 ADD MSTORE PUSH1 0x20 ADD PUSH2 0x166C JUMP JUMPDEST DUP4 DUP2 GT ISZERO PUSH2 0x805 JUMPI POP POP PUSH1 0x0 SWAP2 ADD MSTORE JUMP JUMPDEST PUSH1 0x0 DUP2 MLOAD DUP1 DUP5 MSTORE PUSH2 0x16AD DUP2 PUSH1 0x20 DUP7 ADD PUSH1 0x20 DUP7 ADD PUSH2 0x1669 JUMP JUMPDEST PUSH1 0x1F ADD PUSH1 0x1F NOT AND SWAP3 SWAP1 SWAP3 ADD PUSH1 0x20 ADD SWAP3 SWAP2 POP POP JUMP JUMPDEST PUSH1 0x20 DUP2 MSTORE PUSH1 0x0 PUSH2 0x1129 PUSH1 0x20 DUP4 ADD DUP5 PUSH2 0x1695 JUMP JUMPDEST PUSH1 0x0 PUSH1 0x20 DUP3 DUP5 SUB SLT ISZERO PUSH2 0x16E6 JUMPI PUSH1 0x0 DUP1 REVERT JUMPDEST POP CALLDATALOAD SWAP2 SWAP1 POP JUMP JUMPDEST DUP1 CALLDATALOAD PUSH1 0x1 PUSH1 0x1 PUSH1 0xA0 SHL SUB DUP2 AND DUP2 EQ PUSH2 0x1704 JUMPI PUSH1 0x0 DUP1 REVERT JUMPDEST SWAP2 SWAP1 POP JUMP JUMPDEST PUSH1 0x0 DUP1 PUSH1 0x40 DUP4 DUP6 SUB SLT ISZERO PUSH2 0x171C JUMPI PUSH1 0x0 DUP1 REVERT JUMPDEST PUSH2 0x1725 DUP4 PUSH2 0x16ED JUMP JUMPDEST SWAP5 PUSH1 0x20 SWAP4 SWAP1 SWAP4 ADD CALLDATALOAD SWAP4 POP POP POP JUMP JUMPDEST PUSH1 0x0 DUP1 PUSH1 0x0 PUSH1 0x60 DUP5 DUP7 SUB SLT ISZERO PUSH2 0x1748 JUMPI PUSH1 0x0 DUP1 REVERT JUMPDEST PUSH2 0x1751 DUP5 PUSH2 0x16ED JUMP JUMPDEST SWAP3 POP PUSH2 0x175F PUSH1 0x20 DUP6 ADD PUSH2 0x16ED JUMP JUMPDEST SWAP2 POP PUSH1 0x40 DUP5 ADD CALLDATALOAD SWAP1 POP SWAP3 POP SWAP3 POP SWAP3 JUMP JUMPDEST PUSH1 0x0 PUSH1 0x20 DUP3 DUP5 SUB SLT ISZERO PUSH2 0x1781 JUMPI PUSH1 0x0 DUP1 REVERT JUMPDEST PUSH2 0x1129 DUP3 PUSH2 0x16ED JUMP JUMPDEST PUSH1 0x0 DUP1 PUSH1 0x40 DUP4 DUP6 SUB SLT ISZERO PUSH2 0x179D JUMPI PUSH1 0x0 DUP1 REVERT JUMPDEST PUSH2 0x17A6 DUP4 PUSH2 0x16ED JUMP JUMPDEST SWAP2 POP PUSH1 0x20 DUP4 ADD CALLDATALOAD DUP1 ISZERO ISZERO DUP2 EQ PUSH2 0x17BB JUMPI PUSH1 0x0 DUP1 REVERT JUMPDEST DUP1 SWAP2 POP POP SWAP3 POP SWAP3 SWAP1 POP JUMP JUMPDEST PUSH4 0x4E487B71 PUSH1 0xE0 SHL PUSH1 0x0 MSTORE PUSH1 0x41 PUSH1 0x4 MSTORE PUSH1 0x24 PUSH1 0x0 REVERT JUMPDEST PUSH1 0x0 DUP1 PUSH1 0x0 DUP1 PUSH1 0x80 DUP6 DUP8 SUB SLT ISZERO PUSH2 0x17F2 JUMPI PUSH1 0x0 DUP1 REVERT JUMPDEST PUSH2 0x17FB DUP6 PUSH2 0x16ED JUMP JUMPDEST SWAP4 POP PUSH2 0x1809 PUSH1 0x20 DUP7 ADD PUSH2 0x16ED JUMP JUMPDEST SWAP3 POP PUSH1 0x40 DUP6 ADD CALLDATALOAD SWAP2 POP PUSH1 0x60 DUP6 ADD CALLDATALOAD PUSH8 0xFFFFFFFFFFFFFFFF DUP1 DUP3 GT ISZERO PUSH2 0x182D JUMPI PUSH1 0x0 DUP1 REVERT JUMPDEST DUP2 DUP8 ADD SWAP2 POP DUP8 PUSH1 0x1F DUP4 ADD SLT PUSH2 0x1841 JUMPI PUSH1 0x0 DUP1 REVERT JUMPDEST DUP2 CALLDATALOAD DUP2 DUP2 GT ISZERO PUSH2 0x1853 JUMPI PUSH2 0x1853 PUSH2 0x17C6 JUMP JUMPDEST PUSH1 0x40 MLOAD PUSH1 0x1F DUP3 ADD PUSH1 0x1F NOT SWAP1 DUP2 AND PUSH1 0x3F ADD AND DUP2 ADD SWAP1 DUP4 DUP3 GT DUP2 DUP4 LT OR ISZERO PUSH2 0x187B JUMPI PUSH2 0x187B PUSH2 0x17C6 JUMP JUMPDEST DUP2 PUSH1 0x40 MSTORE DUP3 DUP2 MSTORE DUP11 PUSH1 0x20 DUP5 DUP8 ADD ADD GT ISZERO PUSH2 0x1894 JUMPI PUSH1 0x0 DUP1 REVERT JUMPDEST DUP3 PUSH1 0x20 DUP7 ADD PUSH1 0x20 DUP4 ADD CALLDATACOPY PUSH1 0x0 PUSH1 0x20 DUP5 DUP4 ADD ADD MSTORE DUP1 SWAP6 POP POP POP POP POP POP SWAP3 SWAP6 SWAP2 SWAP5 POP SWAP3 POP JUMP JUMPDEST PUSH1 0x0 DUP1 PUSH1 0x40 DUP4 DUP6 SUB SLT ISZERO PUSH2 0x18CB JUMPI PUSH1 0x0 DUP1 REVERT JUMPDEST PUSH2 0x18D4 DUP4 PUSH2 0x16ED JUMP JUMPDEST SWAP2 POP PUSH2 0x18E2 PUSH1 0x20 DUP5 ADD PUSH2 0x16ED JUMP JUMPDEST SWAP1 POP SWAP3 POP SWAP3 SWAP1 POP JUMP JUMPDEST PUSH1 0x1 DUP2 DUP2 SHR SWAP1 DUP3 AND DUP1 PUSH2 0x18FF JUMPI PUSH1 0x7F DUP3 AND SWAP2 POP JUMPDEST PUSH1 0x20 DUP3 LT DUP2 SUB PUSH2 0x191F JUMPI PUSH4 0x4E487B71 PUSH1 0xE0 SHL PUSH1 0x0 MSTORE PUSH1 0x22 PUSH1 0x4 MSTORE PUSH1 0x24 PUSH1 0x0 REVERT JUMPDEST POP SWAP2 SWAP1 POP JUMP JUMPDEST PUSH1 0x20 DUP1 DUP3 MSTORE PUSH1 0x31 SWAP1 DUP3 ADD MSTORE PUSH32 0x4552433732313A207472616E736665722063616C6C6572206973206E6F74206F PUSH1 0x40 DUP3 ADD MSTORE PUSH17 0x1DDB995C881B9BDC88185C1C1C9BDD9959 PUSH1 0x7A SHL PUSH1 0x60 DUP3 ADD MSTORE PUSH1 0x80 ADD SWAP1 JUMP JUMPDEST PUSH1 0x0 DUP5 MLOAD PUSH2 0x1988 DUP2 DUP5 PUSH1 0x20 DUP10 ADD PUSH2 0x1669 JUMP JUMPDEST DUP1 DUP4 ADD SWAP1 POP PUSH1 0x1 PUSH1 0xFD SHL DUP1 DUP3 MSTORE DUP6 MLOAD PUSH2 0x19A8 DUP2 PUSH1 0x1 DUP6 ADD PUSH1 0x20 DUP11 ADD PUSH2 0x1669 JUMP JUMPDEST PUSH1 0x1 SWAP3 ADD SWAP2 DUP3 ADD MSTORE DUP4 MLOAD PUSH2 0x19C3 DUP2 PUSH1 0x2 DUP5 ADD PUSH1 0x20 DUP9 ADD PUSH2 0x1669 JUMP JUMPDEST ADD PUSH1 0x2 ADD SWAP6 SWAP5 POP POP POP POP POP JUMP JUMPDEST PUSH1 0x0 DUP2 SLOAD PUSH2 0x19DD DUP2 PUSH2 0x18EB JUMP JUMPDEST PUSH1 0x1 DUP3 DUP2 AND DUP1 ISZERO PUSH2 0x19F5 JUMPI PUSH1 0x1 DUP2 EQ PUSH2 0x1A0A JUMPI PUSH2 0x1A39 JUMP JUMPDEST PUSH1 0xFF NOT DUP5 AND DUP8 MSTORE DUP3 ISZERO ISZERO DUP4 MUL DUP8 ADD SWAP5 POP PUSH2 0x1A39 JUMP JUMPDEST DUP6 PUSH1 0x0 MSTORE PUSH1 0x20 DUP1 PUSH1 0x0 KECCAK256 PUSH1 0x0 JUMPDEST DUP6 DUP2 LT ISZERO PUSH2 0x1A30 JUMPI DUP2 SLOAD DUP11 DUP3 ADD MSTORE SWAP1 DUP5 ADD SWAP1 DUP3 ADD PUSH2 0x1A17 JUMP JUMPDEST POP POP POP DUP3 DUP8 ADD SWAP5 POP JUMPDEST POP POP POP POP SWAP3 SWAP2 POP POP JUMP JUMPDEST PUSH1 0x0 PUSH2 0x1A4F DUP3 DUP8 PUSH2 0x19D0 JUMP JUMPDEST DUP6 MLOAD PUSH2 0x1A5F DUP2 DUP4 PUSH1 0x20 DUP11 ADD PUSH2 0x1669 JUMP JUMPDEST PUSH2 0x1A6B DUP2 DUP4 ADD DUP8 PUSH2 0x19D0 JUMP JUMPDEST SWAP2 POP POP DUP4 MLOAD PUSH2 0x1A7E DUP2 DUP4 PUSH1 0x20 DUP9 ADD PUSH2 0x1669 JUMP JUMPDEST PUSH13 0x1E17BA32BC3A1F1E17B9BB339F PUSH1 0x99 SHL SWAP2 ADD SWAP1 DUP2 MSTORE PUSH1 0xD ADD SWAP7 SWAP6 POP POP POP POP POP POP JUMP JUMPDEST PUSH1 0x0 DUP4 MLOAD PUSH2 0x1AB3 DUP2 DUP5 PUSH1 0x20 DUP9 ADD PUSH2 0x1669 JUMP JUMPDEST DUP4 MLOAD SWAP1 DUP4 ADD SWAP1 PUSH2 0x1AC7 DUP2 DUP4 PUSH1 0x20 DUP9 ADD PUSH2 0x1669 JUMP JUMPDEST ADD SWAP5 SWAP4 POP POP POP POP JUMP JUMPDEST PUSH4 0x4E487B71 PUSH1 0xE0 SHL PUSH1 0x0 MSTORE PUSH1 0x11 PUSH1 0x4 MSTORE PUSH1 0x24 PUSH1 0x0 REVERT JUMPDEST PUSH1 0x0 DUP3 DUP3 LT ISZERO PUSH2 0x1AF8 JUMPI PUSH2 0x1AF8 PUSH2 0x1AD0 JUMP JUMPDEST POP SUB SWAP1 JUMP JUMPDEST PUSH1 0x0 DUP3 NOT DUP3 GT ISZERO PUSH2 0x1B10 JUMPI PUSH2 0x1B10 PUSH2 0x1AD0 JUMP JUMPDEST POP ADD SWAP1 JUMP JUMPDEST PUSH10 0x11925494D517D5D3D491 PUSH1 0xB2 SHL DUP2 MSTORE PUSH1 0x0 DUP3 MLOAD PUSH2 0x1B3A DUP2 PUSH1 0xA DUP6 ADD PUSH1 0x20 DUP8 ADD PUSH2 0x1669 JUMP JUMPDEST SWAP2 SWAP1 SWAP2 ADD PUSH1 0xA ADD SWAP3 SWAP2 POP POP JUMP JUMPDEST PUSH4 0x4E487B71 PUSH1 0xE0 SHL PUSH1 0x0 MSTORE PUSH1 0x12 PUSH1 0x4 MSTORE PUSH1 0x24 PUSH1 0x0 REVERT JUMPDEST PUSH1 0x0 DUP3 PUSH2 0x1B6C JUMPI PUSH2 0x1B6C PUSH2 0x1B47 JUMP JUMPDEST POP MOD SWAP1 JUMP JUMPDEST PUSH4 0x4E487B71 PUSH1 0xE0 SHL PUSH1 0x0 MSTORE PUSH1 0x32 PUSH1 0x4 MSTORE PUSH1 0x24 PUSH1 0x0 REVERT JUMPDEST PUSH11 0x14D150D3D39117D5D3D491 PUSH1 0xAA SHL DUP2 MSTORE PUSH1 0x0 DUP3 MLOAD PUSH2 0x1BAD DUP2 PUSH1 0xB DUP6 ADD PUSH1 0x20 DUP8 ADD PUSH2 0x1669 JUMP JUMPDEST SWAP2 SWAP1 SWAP2 ADD PUSH1 0xB ADD SWAP3 SWAP2 POP POP JUMP JUMPDEST PUSH10 0x151212549117D5D3D491 PUSH1 0xB2 SHL DUP2 MSTORE PUSH1 0x0 DUP3 MLOAD PUSH2 0x1B3A DUP2 PUSH1 0xA DUP6 ADD PUSH1 0x20 DUP8 ADD PUSH2 0x1669 JUMP JUMPDEST PUSH5 0x21A7A627A9 PUSH1 0xD9 SHL DUP2 MSTORE PUSH1 0x0 DUP3 MLOAD PUSH2 0x1BFF DUP2 PUSH1 0x5 DUP6 ADD PUSH1 0x20 DUP8 ADD PUSH2 0x1669 JUMP JUMPDEST SWAP2 SWAP1 SWAP2 ADD PUSH1 0x5 ADD SWAP3 SWAP2 POP POP JUMP JUMPDEST PUSH10 0x3D913730B6B2911D1011 PUSH1 0xB1 SHL DUP2 MSTORE DUP3 MLOAD PUSH1 0x0 SWAP1 PUSH2 0x1C32 DUP2 PUSH1 0xA DUP6 ADD PUSH1 0x20 DUP9 ADD PUSH2 0x1669 JUMP JUMPDEST PUSH32 0x222C20226465736372697074696F6E223A202241206C6567656E64204E465420 PUSH1 0xA SWAP2 DUP5 ADD SWAP2 DUP3 ADD MSTORE PUSH32 0x636F6C6C656374696F6E20666F7220616C6C20636F6465666F72657374732072 PUSH1 0x2A DUP3 ADD MSTORE PUSH32 0x6561646572732E222C2022696D616765223A2022646174613A696D6167652F73 PUSH1 0x4A DUP3 ADD MSTORE PUSH14 0x1D99CADE1B5B0ED8985CD94D8D0B PUSH1 0x92 SHL PUSH1 0x6A DUP3 ADD MSTORE DUP4 MLOAD PUSH2 0x1CD2 DUP2 PUSH1 0x78 DUP5 ADD PUSH1 0x20 DUP9 ADD PUSH2 0x1669 JUMP JUMPDEST PUSH2 0x227D PUSH1 0xF0 SHL PUSH1 0x78 SWAP3 SWAP1 SWAP2 ADD SWAP2 DUP3 ADD MSTORE PUSH1 0x7A ADD SWAP5 SWAP4 POP POP POP POP JUMP JUMPDEST PUSH32 0x646174613A6170706C69636174696F6E2F6A736F6E3B6261736536342C000000 DUP2 MSTORE PUSH1 0x0 DUP3 MLOAD PUSH2 0x1D25 DUP2 PUSH1 0x1D DUP6 ADD PUSH1 0x20 DUP8 ADD PUSH2 0x1669 JUMP JUMPDEST SWAP2 SWAP1 SWAP2 ADD PUSH1 0x1D ADD SWAP3 SWAP2 POP POP JUMP JUMPDEST PUSH1 0x1F DUP3 GT ISZERO PUSH2 0x503 JUMPI PUSH1 0x0 DUP2 DUP2 MSTORE PUSH1 0x20 DUP2 KECCAK256 PUSH1 0x1F DUP6 ADD PUSH1 0x5 SHR DUP2 ADD PUSH1 0x20 DUP7 LT ISZERO PUSH2 0x1D59 JUMPI POP DUP1 JUMPDEST PUSH1 0x1F DUP6 ADD PUSH1 0x5 SHR DUP3 ADD SWAP2 POP JUMPDEST DUP2 DUP2 LT ISZERO PUSH2 0x1D78 JUMPI DUP3 DUP2 SSTORE PUSH1 0x1 ADD PUSH2 0x1D65 JUMP JUMPDEST POP POP POP POP POP POP JUMP JUMPDEST DUP2 MLOAD PUSH8 0xFFFFFFFFFFFFFFFF DUP2 GT ISZERO PUSH2 0x1D9A JUMPI PUSH2 0x1D9A PUSH2 0x17C6 JUMP JUMPDEST PUSH2 0x1DAE DUP2 PUSH2 0x1DA8 DUP5 SLOAD PUSH2 0x18EB JUMP JUMPDEST DUP5 PUSH2 0x1D32 JUMP JUMPDEST PUSH1 0x20 DUP1 PUSH1 0x1F DUP4 GT PUSH1 0x1 DUP2 EQ PUSH2 0x1DE3 JUMPI PUSH1 0x0 DUP5 ISZERO PUSH2 0x1DCB JUMPI POP DUP6 DUP4 ADD MLOAD JUMPDEST PUSH1 0x0 NOT PUSH1 0x3 DUP7 SWAP1 SHL SHR NOT AND PUSH1 0x1 DUP6 SWAP1 SHL OR DUP6 SSTORE PUSH2 0x1D78 JUMP JUMPDEST PUSH1 0x0 DUP6 DUP2 MSTORE PUSH1 0x20 DUP2 KECCAK256 PUSH1 0x1F NOT DUP7 AND SWAP2 JUMPDEST DUP3 DUP2 LT ISZERO PUSH2 0x1E12 JUMPI DUP9 DUP7 ADD MLOAD DUP3 SSTORE SWAP5 DUP5 ADD SWAP5 PUSH1 0x1 SWAP1 SWAP2 ADD SWAP1 DUP5 ADD PUSH2 0x1DF3 JUMP JUMPDEST POP DUP6 DUP3 LT ISZERO PUSH2 0x1E30 JUMPI DUP8 DUP6 ADD MLOAD PUSH1 0x0 NOT PUSH1 0x3 DUP9 SWAP1 SHL PUSH1 0xF8 AND SHR NOT AND DUP2 SSTORE JUMPDEST POP POP POP POP POP PUSH1 0x1 SWAP1 DUP2 SHL ADD SWAP1 SSTORE POP JUMP JUMPDEST PUSH1 0x20 DUP1 DUP3 MSTORE PUSH1 0x32 SWAP1 DUP3 ADD MSTORE PUSH32 0x4552433732313A207472616E7366657220746F206E6F6E204552433732315265 PUSH1 0x40 DUP3 ADD MSTORE PUSH18 0x31B2B4BB32B91034B6B83632B6B2B73A32B9 PUSH1 0x71 SHL PUSH1 0x60 DUP3 ADD MSTORE PUSH1 0x80 ADD SWAP1 JUMP JUMPDEST PUSH1 0x0 PUSH1 0x1 DUP3 ADD PUSH2 0x1EA4 JUMPI PUSH2 0x1EA4 PUSH2 0x1AD0 JUMP JUMPDEST POP PUSH1 0x1 ADD SWAP1 JUMP JUMPDEST PUSH1 0x0 DUP3 PUSH2 0x1EBA JUMPI PUSH2 0x1EBA PUSH2 0x1B47 JUMP JUMPDEST POP DIV SWAP1 JUMP JUMPDEST PUSH1 0x0 DUP3 MLOAD PUSH2 0x1ED1 DUP2 DUP5 PUSH1 0x20 DUP8 ADD PUSH2 0x1669 JUMP JUMPDEST SWAP2 SWAP1 SWAP2 ADD SWAP3 SWAP2 POP POP JUMP JUMPDEST PUSH1 0x0 DUP2 PUSH1 0x0 NOT DIV DUP4 GT DUP3 ISZERO ISZERO AND ISZERO PUSH2 0x1EF5 JUMPI PUSH2 0x1EF5 PUSH2 0x1AD0 JUMP JUMPDEST POP MUL SWAP1 JUMP JUMPDEST PUSH1 0x1 PUSH1 0x1 PUSH1 0xA0 SHL SUB DUP6 DUP2 AND DUP3 MSTORE DUP5 AND PUSH1 0x20 DUP3 ADD MSTORE PUSH1 0x40 DUP2 ADD DUP4 SWAP1 MSTORE PUSH1 0x80 PUSH1 0x60 DUP3 ADD DUP2 SWAP1 MSTORE PUSH1 0x0 SWAP1 PUSH2 0x1F2D SWAP1 DUP4 ADD DUP5 PUSH2 0x1695 JUMP JUMPDEST SWAP7 SWAP6 POP POP POP POP POP POP JUMP JUMPDEST PUSH1 0x0 PUSH1 0x20 DUP3 DUP5 SUB SLT ISZERO PUSH2 0x1F49 JUMPI PUSH1 0x0 DUP1 REVERT JUMPDEST DUP2 MLOAD PUSH2 0x1129 DUP2 PUSH2 0x1633 JUMP INVALID COINBASE TIMESTAMP NUMBER DIFFICULTY GASLIMIT CHAINID SELFBALANCE BASEFEE 0x49 0x4A 0x4B 0x4C 0x4D 0x4E 0x4F POP MLOAD MSTORE MSTORE8 SLOAD SSTORE JUMP JUMPI PC MSIZE GAS PUSH2 0x6263 PUSH5 0x6566676869 PUSH11 0x6B6C6D6E6F707172737475 PUSH23 0x7778797A303132333435363738392B2FA2646970667358 0x22 SLT KECCAK256 PUSH17 0xA6809FDD895F5653F75F98A2F6E0206FB9 PUSH14 0x166255CE47EEDD5AA3C837FF3A64 PUSH20 0x6F6C634300080F00330000000000000000000000 ","sha1":"f67d3b90a68c5a38207321bd0f5c467f6feb3f2f","source":"// SPDX-License-Identifier: UNLICENSED\n\npragma solidity ^0.8.15;\n\nimport \"@openzeppelin/contracts/token/ERC721/extensions/ERC721URIStorage.sol\";\nimport \"@openzeppelin/contracts/utils/Counters.sol\";\n\nimport {Base64} from \"./libraries/Base64.sol\";\n\ncontract LegendNFT is ERC721URIStorage {\n    using Counters for Counters.Counter;\n    Counters.Counter private _tokenIds;\n\n    uint256 public totalSupply;\n\n    string baseSvg1 =\n        \"<svg xmlns='http://www.w3.org/2000/svg' preserveAspectRatio='xMinYMin meet' viewBox='0 0 350 350'><style>.base { fill: #FEFEFE; font-family: League Spartan; font-size: 24px; }</style><rect width='100%' height='100%' fill='\";\n    string baseSvg2 =\n        \"' /><text x='50%' y='50%' class='base' dominant-baseline='middle' text-anchor='middle'>\";\n\n    string[] firstWords = [\n        \"Elegant\",\n        \"Exquisite\",\n        \"Glorious\",\n        \"Junoesque\",\n        \"Magnificent\",\n        \"Resplendent\",\n        \"Splendid\",\n        \"Statuesque\",\n        \"Sublime\",\n        \"Superb\"\n    ];\n    string[] secondWords = [\n        \"Python\",\n        \"Javascript\",\n        \"Java\",\n        \"C#\",\n        \"C\",\n        \"C++\",\n        \"Go\",\n        \"Rust\",\n        \"R\",\n        \"Swift\",\n        \"PHP\"\n    ];\n    string[] thirdWords = [\n        \"Code\",\n        \"Gem\",\n        \"Arts\",\n        \"Work\",\n        \"Masterstroke\",\n        \"Program\",\n        \"UI\",\n        \"Masterpiece\",\n        \"Showpiece\",\n        \"Standard\"\n    ];\n    string[] colors = [\n        \"#BD1E51\",\n        \"#00ABE1\",\n        \"#161F6D\",\n        \"#7DA2A9\",\n        \"#00458B\",\n        \"#1D2228\",\n        \"#051622\",\n        \"#438945\",\n        \"#5C6E58\",\n        \"#181818\",\n        \"#2CCCC3\",\n        \"#FACD3D\",\n        \"#5626C4\",\n        \"#E60576\"\n    ];\n\n    event NewLegendNFTMinted(address sender, uint256 tokenId);\n\n    constructor() ERC721(\"Codeforests Sample Legend\", \"CFSL\") {\n        totalSupply = 1000000;\n    }\n\n    function pickRandomFirstWord(uint256 tokenId)\n        internal\n        view\n        returns (string memory)\n    {\n        uint256 rand = random(\n            string(abi.encodePacked(\"FIRST_WORD\", Strings.toString(tokenId)))\n        );\n        rand = rand % firstWords.length;\n        return firstWords[rand];\n    }\n\n    function pickRandomSecondWord(uint256 tokenId)\n        internal\n        view\n        returns (string memory)\n    {\n        uint256 rand = random(\n            string(abi.encodePacked(\"SECOND_WORD\", Strings.toString(tokenId)))\n        );\n        rand = rand % secondWords.length;\n        return secondWords[rand];\n    }\n\n    function pickRandomThirdWord(uint256 tokenId)\n        internal\n        view\n        returns (string memory)\n    {\n        uint256 rand = random(\n            string(abi.encodePacked(\"THIRD_WORD\", Strings.toString(tokenId)))\n        );\n        rand = rand % thirdWords.length;\n        return thirdWords[rand];\n    }\n\n    function pickRandomColor(uint256 tokenId)\n        internal\n        view\n        returns (string memory)\n    {\n        uint256 rand = random(\n            string(abi.encodePacked(\"COLOR\", Strings.toString(tokenId)))\n        );\n        rand = rand % colors.length;\n        return colors[rand];\n    }\n\n    function random(string memory input) internal pure returns (uint256) {\n        return uint256(keccak256(abi.encodePacked(input)));\n    }\n\n    function makeLegendNFT() public {\n        uint256 newItemId = _tokenIds.current();\n        require(newItemId < totalSupply, \"Total supply has been reached!\");\n\n        string memory first = pickRandomFirstWord(newItemId);\n        string memory second = pickRandomSecondWord(newItemId);\n        string memory third = pickRandomThirdWord(newItemId);\n        string memory randomColor = pickRandomColor(newItemId);\n\n        string memory combinedWord = string(\n            abi.encodePacked(first, \" \", second, \" \", third)\n        );\n\n        string memory svgString = string(\n            abi.encodePacked(\n                baseSvg1,\n                randomColor,\n                baseSvg2,\n                combinedWord,\n                \"</text></svg>\"\n            )\n        );\n\n        string memory TOKEN_JSON_URI = getTokenURI(combinedWord, svgString);\n\n        _safeMint(_msgSender(), newItemId);\n        _setTokenURI(newItemId, TOKEN_JSON_URI);\n        _tokenIds.increment();\n        emit NewLegendNFTMinted(_msgSender(), newItemId);\n    }\n\n    function getTokenURI(string memory words, string memory svgString)\n        internal\n        pure\n        returns (string memory)\n    {\n        string memory json = Base64.encode(\n            bytes(\n                string(\n                    abi.encodePacked(\n                        '{\"name\": \"',\n                        words,\n                        '\", \"description\": \"A legend NFT collection for all codeforests readers.\", \"image\": \"data:image/svg+xml;base64,',\n                        Base64.encode(bytes(svgString)),\n                        '\"}'\n                    )\n                )\n            )\n        );\n\n        string memory finalTokenUri = string(\n            abi.encodePacked(\"data:application/json;base64,\", json)\n        );\n\n        return finalTokenUri;\n    }\n\n    function getTotalNFTsMintedSoFar() public view returns (uint256) {\n        return _tokenIds.current();\n    }\n}\n","sourcePath":"contracts/LegendNFT.sol","type":"contract","deployment":{"address":"0x01665f6FC6B702BEb6045A7EB029d6be3769A219","chainid":"42","blockHeight":32208228}}